{
	"learn/Hash.sol": {
		"VerifySig": {
			"abi": [
				{
					"inputs": [
						{
							"internalType": "bytes32",
							"name": "_messageHash",
							"type": "bytes32"
						}
					],
					"name": "getEthSignedMessageHash",
					"outputs": [
						{
							"internalType": "bytes32",
							"name": "",
							"type": "bytes32"
						}
					],
					"stateMutability": "pure",
					"type": "function"
				},
				{
					"inputs": [
						{
							"internalType": "string",
							"name": "_message",
							"type": "string"
						}
					],
					"name": "getMessageHash",
					"outputs": [
						{
							"internalType": "bytes32",
							"name": "",
							"type": "bytes32"
						}
					],
					"stateMutability": "pure",
					"type": "function"
				},
				{
					"inputs": [
						{
							"internalType": "bytes32",
							"name": "_ethSignedMessageHash",
							"type": "bytes32"
						},
						{
							"internalType": "bytes",
							"name": "_sig",
							"type": "bytes"
						}
					],
					"name": "recover",
					"outputs": [
						{
							"internalType": "address",
							"name": "",
							"type": "address"
						}
					],
					"stateMutability": "pure",
					"type": "function"
				},
				{
					"inputs": [
						{
							"internalType": "address",
							"name": "_signer",
							"type": "address"
						},
						{
							"internalType": "string",
							"name": "_message",
							"type": "string"
						},
						{
							"internalType": "bytes",
							"name": "_sig",
							"type": "bytes"
						}
					],
					"name": "verify",
					"outputs": [
						{
							"internalType": "bool",
							"name": "",
							"type": "bool"
						}
					],
					"stateMutability": "pure",
					"type": "function"
				}
			],
			"devdoc": {
				"kind": "dev",
				"methods": {},
				"version": 1
			},
			"evm": {
				"assembly": "    /* \"learn/Hash.sol\":1039:4613  contract VerifySig {... */\n  mstore(0x40, 0x80)\n  callvalue\n  dup1\n  iszero\n  tag_1\n  jumpi\n  revert(0x00, 0x00)\ntag_1:\n  pop\n  dataSize(sub_0)\n  dup1\n  dataOffset(sub_0)\n  0x00\n  codecopy\n  0x00\n  return\nstop\n\nsub_0: assembly {\n        /* \"learn/Hash.sol\":1039:4613  contract VerifySig {... */\n      mstore(0x40, 0x80)\n      callvalue\n      dup1\n      iszero\n      tag_1\n      jumpi\n      revert(0x00, 0x00)\n    tag_1:\n      pop\n      jumpi(tag_2, lt(calldatasize, 0x04))\n      shr(0xe0, calldataload(0x00))\n      dup1\n      0x19045a25\n      eq\n      tag_3\n      jumpi\n      dup1\n      0x2dd34f0f\n      eq\n      tag_4\n      jumpi\n      dup1\n      0xb446f3b2\n      eq\n      tag_5\n      jumpi\n      dup1\n      0xfa540801\n      eq\n      tag_6\n      jumpi\n    tag_2:\n      revert(0x00, 0x00)\n        /* \"learn/Hash.sol\":3318:3538  function recover(bytes32 _ethSignedMessageHash, bytes memory _sig) public pure returns(address) {... */\n    tag_3:\n      tag_7\n      0x04\n      dup1\n      calldatasize\n      sub\n      dup2\n      add\n      swap1\n      tag_8\n      swap2\n      swap1\n      tag_9\n      jump\t// in\n    tag_8:\n      tag_10\n      jump\t// in\n    tag_7:\n      mload(0x40)\n      tag_11\n      swap2\n      swap1\n      tag_12\n      jump\t// in\n    tag_11:\n      mload(0x40)\n      dup1\n      swap2\n      sub\n      swap1\n      return\n        /* \"learn/Hash.sol\":1661:1973  function verify(address _signer, string memory _message, bytes memory _sig) external pure returns(bool){... */\n    tag_4:\n      tag_13\n      0x04\n      dup1\n      calldatasize\n      sub\n      dup2\n      add\n      swap1\n      tag_14\n      swap2\n      swap1\n      tag_15\n      jump\t// in\n    tag_14:\n      tag_16\n      jump\t// in\n    tag_13:\n      mload(0x40)\n      tag_17\n      swap2\n      swap1\n      tag_18\n      jump\t// in\n    tag_17:\n      mload(0x40)\n      dup1\n      swap2\n      sub\n      swap1\n      return\n        /* \"learn/Hash.sol\":1981:2121  function getMessageHash(string memory _message) public pure returns(bytes32) {... */\n    tag_5:\n      tag_19\n      0x04\n      dup1\n      calldatasize\n      sub\n      dup2\n      add\n      swap1\n      tag_20\n      swap2\n      swap1\n      tag_21\n      jump\t// in\n    tag_20:\n      tag_22\n      jump\t// in\n    tag_19:\n      mload(0x40)\n      tag_23\n      swap2\n      swap1\n      tag_24\n      jump\t// in\n    tag_23:\n      mload(0x40)\n      dup1\n      swap2\n      sub\n      swap1\n      return\n        /* \"learn/Hash.sol\":2129:2890  function getEthSignedMessageHash(bytes32 _messageHash) public pure returns(bytes32) {... */\n    tag_6:\n      tag_25\n      0x04\n      dup1\n      calldatasize\n      sub\n      dup2\n      add\n      swap1\n      tag_26\n      swap2\n      swap1\n      tag_27\n      jump\t// in\n    tag_26:\n      tag_28\n      jump\t// in\n    tag_25:\n      mload(0x40)\n      tag_29\n      swap2\n      swap1\n      tag_24\n      jump\t// in\n    tag_29:\n      mload(0x40)\n      dup1\n      swap2\n      sub\n      swap1\n      return\n        /* \"learn/Hash.sol\":3318:3538  function recover(bytes32 _ethSignedMessageHash, bytes memory _sig) public pure returns(address) {... */\n    tag_10:\n        /* \"learn/Hash.sol\":3405:3412  address */\n      0x00\n        /* \"learn/Hash.sol\":3426:3435  bytes32 r */\n      0x00\n        /* \"learn/Hash.sol\":3437:3446  bytes32 s */\n      0x00\n        /* \"learn/Hash.sol\":3448:3455  uint8 v */\n      0x00\n        /* \"learn/Hash.sol\":3459:3471  _split(_sig) */\n      tag_31\n        /* \"learn/Hash.sol\":3466:3470  _sig */\n      dup6\n        /* \"learn/Hash.sol\":3459:3465  _split */\n      tag_32\n        /* \"learn/Hash.sol\":3459:3471  _split(_sig) */\n      jump\t// in\n    tag_31:\n        /* \"learn/Hash.sol\":3425:3471  (bytes32 r, bytes32 s, uint8 v) = _split(_sig) */\n      swap3\n      pop\n      swap3\n      pop\n      swap3\n      pop\n        /* \"learn/Hash.sol\":3489:3530  ecrecover(_ethSignedMessageHash, v, r, s) */\n      0x01\n        /* \"learn/Hash.sol\":3499:3520  _ethSignedMessageHash */\n      dup7\n        /* \"learn/Hash.sol\":3522:3523  v */\n      dup3\n        /* \"learn/Hash.sol\":3525:3526  r */\n      dup6\n        /* \"learn/Hash.sol\":3528:3529  s */\n      dup6\n        /* \"learn/Hash.sol\":3489:3530  ecrecover(_ethSignedMessageHash, v, r, s) */\n      mload(0x40)\n      0x00\n      dup2\n      mstore\n      0x20\n      add\n      0x40\n      mstore\n      mload(0x40)\n      tag_33\n      swap5\n      swap4\n      swap3\n      swap2\n      swap1\n      tag_34\n      jump\t// in\n    tag_33:\n      0x20\n      mload(0x40)\n      0x20\n      dup2\n      sub\n      swap1\n      dup1\n      dup5\n      sub\n      swap1\n      dup6\n      gas\n      staticcall\n      iszero\n      dup1\n      iszero\n      tag_36\n      jumpi\n      returndatacopy(0x00, 0x00, returndatasize)\n      revert(0x00, returndatasize)\n    tag_36:\n      pop\n      pop\n      pop\n      mload(sub(mload(0x40), 0x20))\n        /* \"learn/Hash.sol\":3482:3530  return ecrecover(_ethSignedMessageHash, v, r, s) */\n      swap4\n      pop\n      pop\n      pop\n      pop\n        /* \"learn/Hash.sol\":3318:3538  function recover(bytes32 _ethSignedMessageHash, bytes memory _sig) public pure returns(address) {... */\n      swap3\n      swap2\n      pop\n      pop\n      jump\t// out\n        /* \"learn/Hash.sol\":1661:1973  function verify(address _signer, string memory _message, bytes memory _sig) external pure returns(bool){... */\n    tag_16:\n        /* \"learn/Hash.sol\":1759:1763  bool */\n      0x00\n        /* \"learn/Hash.sol\":1775:1794  bytes32 messageHash */\n      0x00\n        /* \"learn/Hash.sol\":1797:1821  getMessageHash(_message) */\n      tag_38\n        /* \"learn/Hash.sol\":1812:1820  _message */\n      dup5\n        /* \"learn/Hash.sol\":1797:1811  getMessageHash */\n      tag_22\n        /* \"learn/Hash.sol\":1797:1821  getMessageHash(_message) */\n      jump\t// in\n    tag_38:\n        /* \"learn/Hash.sol\":1775:1821  bytes32 messageHash = getMessageHash(_message) */\n      swap1\n      pop\n        /* \"learn/Hash.sol\":1832:1860  bytes32 ethSignedMessageHash */\n      0x00\n        /* \"learn/Hash.sol\":1863:1899  getEthSignedMessageHash(messageHash) */\n      tag_39\n        /* \"learn/Hash.sol\":1887:1898  messageHash */\n      dup3\n        /* \"learn/Hash.sol\":1863:1886  getEthSignedMessageHash */\n      tag_28\n        /* \"learn/Hash.sol\":1863:1899  getEthSignedMessageHash(messageHash) */\n      jump\t// in\n    tag_39:\n        /* \"learn/Hash.sol\":1832:1899  bytes32 ethSignedMessageHash = getEthSignedMessageHash(messageHash) */\n      swap1\n      pop\n        /* \"learn/Hash.sol\":1958:1965  _signer */\n      dup6\n        /* \"learn/Hash.sol\":1919:1965  recover(ethSignedMessageHash, _sig) == _signer */\n      0xffffffffffffffffffffffffffffffffffffffff\n      and\n        /* \"learn/Hash.sol\":1919:1954  recover(ethSignedMessageHash, _sig) */\n      tag_40\n        /* \"learn/Hash.sol\":1927:1947  ethSignedMessageHash */\n      dup3\n        /* \"learn/Hash.sol\":1949:1953  _sig */\n      dup7\n        /* \"learn/Hash.sol\":1919:1926  recover */\n      tag_10\n        /* \"learn/Hash.sol\":1919:1954  recover(ethSignedMessageHash, _sig) */\n      jump\t// in\n    tag_40:\n        /* \"learn/Hash.sol\":1919:1965  recover(ethSignedMessageHash, _sig) == _signer */\n      0xffffffffffffffffffffffffffffffffffffffff\n      and\n      eq\n        /* \"learn/Hash.sol\":1912:1965  return recover(ethSignedMessageHash, _sig) == _signer */\n      swap3\n      pop\n      pop\n      pop\n        /* \"learn/Hash.sol\":1661:1973  function verify(address _signer, string memory _message, bytes memory _sig) external pure returns(bool){... */\n      swap4\n      swap3\n      pop\n      pop\n      pop\n      jump\t// out\n        /* \"learn/Hash.sol\":1981:2121  function getMessageHash(string memory _message) public pure returns(bytes32) {... */\n    tag_22:\n        /* \"learn/Hash.sol\":2049:2056  bytes32 */\n      0x00\n        /* \"learn/Hash.sol\":2103:2111  _message */\n      dup2\n        /* \"learn/Hash.sol\":2086:2112  abi.encodePacked(_message) */\n      add(0x20, mload(0x40))\n      tag_42\n      swap2\n      swap1\n      tag_43\n      jump\t// in\n    tag_42:\n      mload(0x40)\n      0x20\n      dup2\n      dup4\n      sub\n      sub\n      dup2\n      mstore\n      swap1\n      0x40\n      mstore\n        /* \"learn/Hash.sol\":2076:2113  keccak256(abi.encodePacked(_message)) */\n      dup1\n      mload\n      swap1\n      0x20\n      add\n      keccak256\n        /* \"learn/Hash.sol\":2069:2113  return keccak256(abi.encodePacked(_message)) */\n      swap1\n      pop\n        /* \"learn/Hash.sol\":1981:2121  function getMessageHash(string memory _message) public pure returns(bytes32) {... */\n      swap2\n      swap1\n      pop\n      jump\t// out\n        /* \"learn/Hash.sol\":2129:2890  function getEthSignedMessageHash(bytes32 _messageHash) public pure returns(bytes32) {... */\n    tag_28:\n        /* \"learn/Hash.sol\":2204:2211  bytes32 */\n      0x00\n        /* \"learn/Hash.sol\":2868:2880  _messageHash */\n      dup2\n        /* \"learn/Hash.sol\":2815:2881  abi.encodePacked(\"\\x19Ethereum Signed Message:\\n32\", _messageHash) */\n      add(0x20, mload(0x40))\n      tag_45\n      swap2\n      swap1\n      tag_46\n      jump\t// in\n    tag_45:\n      mload(0x40)\n      0x20\n      dup2\n      dup4\n      sub\n      sub\n      dup2\n      mstore\n      swap1\n      0x40\n      mstore\n        /* \"learn/Hash.sol\":2805:2882  keccak256(abi.encodePacked(\"\\x19Ethereum Signed Message:\\n32\", _messageHash)) */\n      dup1\n      mload\n      swap1\n      0x20\n      add\n      keccak256\n        /* \"learn/Hash.sol\":2798:2882  return keccak256(abi.encodePacked(\"\\x19Ethereum Signed Message:\\n32\", _messageHash)) */\n      swap1\n      pop\n        /* \"learn/Hash.sol\":2129:2890  function getEthSignedMessageHash(bytes32 _messageHash) public pure returns(bytes32) {... */\n      swap2\n      swap1\n      pop\n      jump\t// out\n        /* \"learn/Hash.sol\":3550:4610  function _split(bytes memory _sig) internal pure returns(bytes32 r, bytes32 s, uint8 v) {... */\n    tag_32:\n        /* \"learn/Hash.sol\":3607:3616  bytes32 r */\n      0x00\n        /* \"learn/Hash.sol\":3618:3627  bytes32 s */\n      0x00\n        /* \"learn/Hash.sol\":3629:3636  uint8 v */\n      0x00\n        /* \"learn/Hash.sol\":3672:3674  65 */\n      0x41\n        /* \"learn/Hash.sol\":3657:3661  _sig */\n      dup5\n        /* \"learn/Hash.sol\":3657:3668  _sig.length */\n      mload\n        /* \"learn/Hash.sol\":3657:3674  _sig.length == 65 */\n      eq\n        /* \"learn/Hash.sol\":3649:3703  require(_sig.length == 65, \"invalid signature length\") */\n      tag_48\n      jumpi\n      mload(0x40)\n      0x08c379a000000000000000000000000000000000000000000000000000000000\n      dup2\n      mstore\n      0x04\n      add\n      tag_49\n      swap1\n      tag_50\n      jump\t// in\n    tag_49:\n      mload(0x40)\n      dup1\n      swap2\n      sub\n      swap1\n      revert\n    tag_48:\n        /* \"learn/Hash.sol\":4501:4503  32 */\n      0x20\n        /* \"learn/Hash.sol\":4495:4499  _sig */\n      dup5\n        /* \"learn/Hash.sol\":4491:4504  add(_sig, 32) */\n      add\n        /* \"learn/Hash.sol\":4485:4505  mload(add(_sig, 32)) */\n      mload\n        /* \"learn/Hash.sol\":4480:4505  r := mload(add(_sig, 32)) */\n      swap3\n      pop\n        /* \"learn/Hash.sol\":4540:4542  64 */\n      0x40\n        /* \"learn/Hash.sol\":4534:4538  _sig */\n      dup5\n        /* \"learn/Hash.sol\":4530:4543  add(_sig, 64) */\n      add\n        /* \"learn/Hash.sol\":4524:4544  mload(add(_sig, 64)) */\n      mload\n        /* \"learn/Hash.sol\":4519:4544  s := mload(add(_sig, 64)) */\n      swap2\n      pop\n        /* \"learn/Hash.sol\":4587:4589  96 */\n      0x60\n        /* \"learn/Hash.sol\":4581:4585  _sig */\n      dup5\n        /* \"learn/Hash.sol\":4577:4590  add(_sig, 96) */\n      add\n        /* \"learn/Hash.sol\":4571:4591  mload(add(_sig, 96)) */\n      mload\n        /* \"learn/Hash.sol\":4568:4569  0 */\n      0x00\n        /* \"learn/Hash.sol\":4563:4592  byte(0, mload(add(_sig, 96))) */\n      byte\n        /* \"learn/Hash.sol\":4558:4592  v := byte(0, mload(add(_sig, 96))) */\n      swap1\n      pop\n        /* \"learn/Hash.sol\":3550:4610  function _split(bytes memory _sig) internal pure returns(bytes32 r, bytes32 s, uint8 v) {... */\n      swap2\n      swap4\n      swap1\n      swap3\n      pop\n      jump\t// out\n        /* \"#utility.yul\":7:82   */\n    tag_51:\n        /* \"#utility.yul\":40:46   */\n      0x00\n        /* \"#utility.yul\":73:75   */\n      0x40\n        /* \"#utility.yul\":67:76   */\n      mload\n        /* \"#utility.yul\":57:76   */\n      swap1\n      pop\n        /* \"#utility.yul\":7:82   */\n      swap1\n      jump\t// out\n        /* \"#utility.yul\":88:205   */\n    tag_52:\n        /* \"#utility.yul\":197:198   */\n      0x00\n        /* \"#utility.yul\":194:195   */\n      0x00\n        /* \"#utility.yul\":187:199   */\n      revert\n        /* \"#utility.yul\":211:328   */\n    tag_53:\n        /* \"#utility.yul\":320:321   */\n      0x00\n        /* \"#utility.yul\":317:318   */\n      0x00\n        /* \"#utility.yul\":310:322   */\n      revert\n        /* \"#utility.yul\":334:411   */\n    tag_54:\n        /* \"#utility.yul\":371:378   */\n      0x00\n        /* \"#utility.yul\":400:405   */\n      dup2\n        /* \"#utility.yul\":389:405   */\n      swap1\n      pop\n        /* \"#utility.yul\":334:411   */\n      swap2\n      swap1\n      pop\n      jump\t// out\n        /* \"#utility.yul\":417:539   */\n    tag_55:\n        /* \"#utility.yul\":490:514   */\n      tag_97\n        /* \"#utility.yul\":508:513   */\n      dup2\n        /* \"#utility.yul\":490:514   */\n      tag_54\n      jump\t// in\n    tag_97:\n        /* \"#utility.yul\":483:488   */\n      dup2\n        /* \"#utility.yul\":480:515   */\n      eq\n        /* \"#utility.yul\":470:533   */\n      tag_98\n      jumpi\n        /* \"#utility.yul\":529:530   */\n      0x00\n        /* \"#utility.yul\":526:527   */\n      0x00\n        /* \"#utility.yul\":519:531   */\n      revert\n        /* \"#utility.yul\":470:533   */\n    tag_98:\n        /* \"#utility.yul\":417:539   */\n      pop\n      jump\t// out\n        /* \"#utility.yul\":545:684   */\n    tag_56:\n        /* \"#utility.yul\":591:596   */\n      0x00\n        /* \"#utility.yul\":629:635   */\n      dup2\n        /* \"#utility.yul\":616:636   */\n      calldataload\n        /* \"#utility.yul\":607:636   */\n      swap1\n      pop\n        /* \"#utility.yul\":645:678   */\n      tag_100\n        /* \"#utility.yul\":672:677   */\n      dup2\n        /* \"#utility.yul\":645:678   */\n      tag_55\n      jump\t// in\n    tag_100:\n        /* \"#utility.yul\":545:684   */\n      swap3\n      swap2\n      pop\n      pop\n      jump\t// out\n        /* \"#utility.yul\":690:807   */\n    tag_57:\n        /* \"#utility.yul\":799:800   */\n      0x00\n        /* \"#utility.yul\":796:797   */\n      0x00\n        /* \"#utility.yul\":789:801   */\n      revert\n        /* \"#utility.yul\":813:930   */\n    tag_58:\n        /* \"#utility.yul\":922:923   */\n      0x00\n        /* \"#utility.yul\":919:920   */\n      0x00\n        /* \"#utility.yul\":912:924   */\n      revert\n        /* \"#utility.yul\":936:1038   */\n    tag_59:\n        /* \"#utility.yul\":977:983   */\n      0x00\n        /* \"#utility.yul\":1028:1030   */\n      0x1f\n        /* \"#utility.yul\":1024:1031   */\n      not\n        /* \"#utility.yul\":1019:1021   */\n      0x1f\n        /* \"#utility.yul\":1012:1017   */\n      dup4\n        /* \"#utility.yul\":1008:1022   */\n      add\n        /* \"#utility.yul\":1004:1032   */\n      and\n        /* \"#utility.yul\":994:1032   */\n      swap1\n      pop\n        /* \"#utility.yul\":936:1038   */\n      swap2\n      swap1\n      pop\n      jump\t// out\n        /* \"#utility.yul\":1044:1224   */\n    tag_60:\n        /* \"#utility.yul\":1092:1169   */\n      0x4e487b7100000000000000000000000000000000000000000000000000000000\n        /* \"#utility.yul\":1089:1090   */\n      0x00\n        /* \"#utility.yul\":1082:1170   */\n      mstore\n        /* \"#utility.yul\":1189:1193   */\n      0x41\n        /* \"#utility.yul\":1186:1187   */\n      0x04\n        /* \"#utility.yul\":1179:1194   */\n      mstore\n        /* \"#utility.yul\":1213:1217   */\n      0x24\n        /* \"#utility.yul\":1210:1211   */\n      0x00\n        /* \"#utility.yul\":1203:1218   */\n      revert\n        /* \"#utility.yul\":1230:1511   */\n    tag_61:\n        /* \"#utility.yul\":1313:1340   */\n      tag_106\n        /* \"#utility.yul\":1335:1339   */\n      dup3\n        /* \"#utility.yul\":1313:1340   */\n      tag_59\n      jump\t// in\n    tag_106:\n        /* \"#utility.yul\":1305:1311   */\n      dup2\n        /* \"#utility.yul\":1301:1341   */\n      add\n        /* \"#utility.yul\":1443:1449   */\n      dup2\n        /* \"#utility.yul\":1431:1441   */\n      dup2\n        /* \"#utility.yul\":1428:1450   */\n      lt\n        /* \"#utility.yul\":1407:1425   */\n      0xffffffffffffffff\n        /* \"#utility.yul\":1395:1405   */\n      dup3\n        /* \"#utility.yul\":1392:1426   */\n      gt\n        /* \"#utility.yul\":1389:1451   */\n      or\n        /* \"#utility.yul\":1386:1474   */\n      iszero\n      tag_107\n      jumpi\n        /* \"#utility.yul\":1454:1472   */\n      tag_108\n      tag_60\n      jump\t// in\n    tag_108:\n        /* \"#utility.yul\":1386:1474   */\n    tag_107:\n        /* \"#utility.yul\":1494:1504   */\n      dup1\n        /* \"#utility.yul\":1490:1492   */\n      0x40\n        /* \"#utility.yul\":1483:1505   */\n      mstore\n        /* \"#utility.yul\":1273:1511   */\n      pop\n        /* \"#utility.yul\":1230:1511   */\n      pop\n      pop\n      jump\t// out\n        /* \"#utility.yul\":1517:1646   */\n    tag_62:\n        /* \"#utility.yul\":1551:1557   */\n      0x00\n        /* \"#utility.yul\":1578:1598   */\n      tag_110\n      tag_51\n      jump\t// in\n    tag_110:\n        /* \"#utility.yul\":1568:1598   */\n      swap1\n      pop\n        /* \"#utility.yul\":1607:1640   */\n      tag_111\n        /* \"#utility.yul\":1635:1639   */\n      dup3\n        /* \"#utility.yul\":1627:1633   */\n      dup3\n        /* \"#utility.yul\":1607:1640   */\n      tag_61\n      jump\t// in\n    tag_111:\n        /* \"#utility.yul\":1517:1646   */\n      swap2\n      swap1\n      pop\n      jump\t// out\n        /* \"#utility.yul\":1652:1959   */\n    tag_63:\n        /* \"#utility.yul\":1713:1717   */\n      0x00\n        /* \"#utility.yul\":1803:1821   */\n      0xffffffffffffffff\n        /* \"#utility.yul\":1795:1801   */\n      dup3\n        /* \"#utility.yul\":1792:1822   */\n      gt\n        /* \"#utility.yul\":1789:1845   */\n      iszero\n      tag_113\n      jumpi\n        /* \"#utility.yul\":1825:1843   */\n      tag_114\n      tag_60\n      jump\t// in\n    tag_114:\n        /* \"#utility.yul\":1789:1845   */\n    tag_113:\n        /* \"#utility.yul\":1863:1892   */\n      tag_115\n        /* \"#utility.yul\":1885:1891   */\n      dup3\n        /* \"#utility.yul\":1863:1892   */\n      tag_59\n      jump\t// in\n    tag_115:\n        /* \"#utility.yul\":1855:1892   */\n      swap1\n      pop\n        /* \"#utility.yul\":1947:1951   */\n      0x20\n        /* \"#utility.yul\":1941:1945   */\n      dup2\n        /* \"#utility.yul\":1937:1952   */\n      add\n        /* \"#utility.yul\":1929:1952   */\n      swap1\n      pop\n        /* \"#utility.yul\":1652:1959   */\n      swap2\n      swap1\n      pop\n      jump\t// out\n        /* \"#utility.yul\":1965:2113   */\n    tag_64:\n        /* \"#utility.yul\":2063:2069   */\n      dup3\n        /* \"#utility.yul\":2058:2061   */\n      dup2\n        /* \"#utility.yul\":2053:2056   */\n      dup4\n        /* \"#utility.yul\":2040:2070   */\n      calldatacopy\n        /* \"#utility.yul\":2104:2105   */\n      0x00\n        /* \"#utility.yul\":2095:2101   */\n      dup4\n        /* \"#utility.yul\":2090:2093   */\n      dup4\n        /* \"#utility.yul\":2086:2102   */\n      add\n        /* \"#utility.yul\":2079:2106   */\n      mstore\n        /* \"#utility.yul\":1965:2113   */\n      pop\n      pop\n      pop\n      jump\t// out\n        /* \"#utility.yul\":2119:2542   */\n    tag_65:\n        /* \"#utility.yul\":2196:2201   */\n      0x00\n        /* \"#utility.yul\":2221:2286   */\n      tag_118\n        /* \"#utility.yul\":2237:2285   */\n      tag_119\n        /* \"#utility.yul\":2278:2284   */\n      dup5\n        /* \"#utility.yul\":2237:2285   */\n      tag_63\n      jump\t// in\n    tag_119:\n        /* \"#utility.yul\":2221:2286   */\n      tag_62\n      jump\t// in\n    tag_118:\n        /* \"#utility.yul\":2212:2286   */\n      swap1\n      pop\n        /* \"#utility.yul\":2309:2315   */\n      dup3\n        /* \"#utility.yul\":2302:2307   */\n      dup2\n        /* \"#utility.yul\":2295:2316   */\n      mstore\n        /* \"#utility.yul\":2347:2351   */\n      0x20\n        /* \"#utility.yul\":2340:2345   */\n      dup2\n        /* \"#utility.yul\":2336:2352   */\n      add\n        /* \"#utility.yul\":2385:2388   */\n      dup5\n        /* \"#utility.yul\":2376:2382   */\n      dup5\n        /* \"#utility.yul\":2371:2374   */\n      dup5\n        /* \"#utility.yul\":2367:2383   */\n      add\n        /* \"#utility.yul\":2364:2389   */\n      gt\n        /* \"#utility.yul\":2361:2473   */\n      iszero\n      tag_120\n      jumpi\n        /* \"#utility.yul\":2392:2471   */\n      tag_121\n      tag_58\n      jump\t// in\n    tag_121:\n        /* \"#utility.yul\":2361:2473   */\n    tag_120:\n        /* \"#utility.yul\":2482:2536   */\n      tag_122\n        /* \"#utility.yul\":2529:2535   */\n      dup5\n        /* \"#utility.yul\":2524:2527   */\n      dup3\n        /* \"#utility.yul\":2519:2522   */\n      dup6\n        /* \"#utility.yul\":2482:2536   */\n      tag_64\n      jump\t// in\n    tag_122:\n        /* \"#utility.yul\":2202:2542   */\n      pop\n        /* \"#utility.yul\":2119:2542   */\n      swap4\n      swap3\n      pop\n      pop\n      pop\n      jump\t// out\n        /* \"#utility.yul\":2561:2899   */\n    tag_66:\n        /* \"#utility.yul\":2616:2621   */\n      0x00\n        /* \"#utility.yul\":2665:2668   */\n      dup3\n        /* \"#utility.yul\":2658:2662   */\n      0x1f\n        /* \"#utility.yul\":2650:2656   */\n      dup4\n        /* \"#utility.yul\":2646:2663   */\n      add\n        /* \"#utility.yul\":2642:2669   */\n      slt\n        /* \"#utility.yul\":2632:2754   */\n      tag_124\n      jumpi\n        /* \"#utility.yul\":2673:2752   */\n      tag_125\n      tag_57\n      jump\t// in\n    tag_125:\n        /* \"#utility.yul\":2632:2754   */\n    tag_124:\n        /* \"#utility.yul\":2790:2796   */\n      dup2\n        /* \"#utility.yul\":2777:2797   */\n      calldataload\n        /* \"#utility.yul\":2815:2893   */\n      tag_126\n        /* \"#utility.yul\":2889:2892   */\n      dup5\n        /* \"#utility.yul\":2881:2887   */\n      dup3\n        /* \"#utility.yul\":2874:2878   */\n      0x20\n        /* \"#utility.yul\":2866:2872   */\n      dup7\n        /* \"#utility.yul\":2862:2879   */\n      add\n        /* \"#utility.yul\":2815:2893   */\n      tag_65\n      jump\t// in\n    tag_126:\n        /* \"#utility.yul\":2806:2893   */\n      swap2\n      pop\n        /* \"#utility.yul\":2622:2899   */\n      pop\n        /* \"#utility.yul\":2561:2899   */\n      swap3\n      swap2\n      pop\n      pop\n      jump\t// out\n        /* \"#utility.yul\":2905:3557   */\n    tag_9:\n        /* \"#utility.yul\":2982:2988   */\n      0x00\n        /* \"#utility.yul\":2990:2996   */\n      0x00\n        /* \"#utility.yul\":3039:3041   */\n      0x40\n        /* \"#utility.yul\":3027:3036   */\n      dup4\n        /* \"#utility.yul\":3018:3025   */\n      dup6\n        /* \"#utility.yul\":3014:3037   */\n      sub\n        /* \"#utility.yul\":3010:3042   */\n      slt\n        /* \"#utility.yul\":3007:3126   */\n      iszero\n      tag_128\n      jumpi\n        /* \"#utility.yul\":3045:3124   */\n      tag_129\n      tag_52\n      jump\t// in\n    tag_129:\n        /* \"#utility.yul\":3007:3126   */\n    tag_128:\n        /* \"#utility.yul\":3165:3166   */\n      0x00\n        /* \"#utility.yul\":3190:3243   */\n      tag_130\n        /* \"#utility.yul\":3235:3242   */\n      dup6\n        /* \"#utility.yul\":3226:3232   */\n      dup3\n        /* \"#utility.yul\":3215:3224   */\n      dup7\n        /* \"#utility.yul\":3211:3233   */\n      add\n        /* \"#utility.yul\":3190:3243   */\n      tag_56\n      jump\t// in\n    tag_130:\n        /* \"#utility.yul\":3180:3243   */\n      swap3\n      pop\n        /* \"#utility.yul\":3136:3253   */\n      pop\n        /* \"#utility.yul\":3320:3322   */\n      0x20\n        /* \"#utility.yul\":3309:3318   */\n      dup4\n        /* \"#utility.yul\":3305:3323   */\n      add\n        /* \"#utility.yul\":3292:3324   */\n      calldataload\n        /* \"#utility.yul\":3351:3369   */\n      0xffffffffffffffff\n        /* \"#utility.yul\":3343:3349   */\n      dup2\n        /* \"#utility.yul\":3340:3370   */\n      gt\n        /* \"#utility.yul\":3337:3454   */\n      iszero\n      tag_131\n      jumpi\n        /* \"#utility.yul\":3373:3452   */\n      tag_132\n      tag_53\n      jump\t// in\n    tag_132:\n        /* \"#utility.yul\":3337:3454   */\n    tag_131:\n        /* \"#utility.yul\":3478:3540   */\n      tag_133\n        /* \"#utility.yul\":3532:3539   */\n      dup6\n        /* \"#utility.yul\":3523:3529   */\n      dup3\n        /* \"#utility.yul\":3512:3521   */\n      dup7\n        /* \"#utility.yul\":3508:3530   */\n      add\n        /* \"#utility.yul\":3478:3540   */\n      tag_66\n      jump\t// in\n    tag_133:\n        /* \"#utility.yul\":3468:3540   */\n      swap2\n      pop\n        /* \"#utility.yul\":3263:3550   */\n      pop\n        /* \"#utility.yul\":2905:3557   */\n      swap3\n      pop\n      swap3\n      swap1\n      pop\n      jump\t// out\n        /* \"#utility.yul\":3563:3689   */\n    tag_67:\n        /* \"#utility.yul\":3600:3607   */\n      0x00\n        /* \"#utility.yul\":3640:3682   */\n      0xffffffffffffffffffffffffffffffffffffffff\n        /* \"#utility.yul\":3633:3638   */\n      dup3\n        /* \"#utility.yul\":3629:3683   */\n      and\n        /* \"#utility.yul\":3618:3683   */\n      swap1\n      pop\n        /* \"#utility.yul\":3563:3689   */\n      swap2\n      swap1\n      pop\n      jump\t// out\n        /* \"#utility.yul\":3695:3791   */\n    tag_68:\n        /* \"#utility.yul\":3732:3739   */\n      0x00\n        /* \"#utility.yul\":3761:3785   */\n      tag_136\n        /* \"#utility.yul\":3779:3784   */\n      dup3\n        /* \"#utility.yul\":3761:3785   */\n      tag_67\n      jump\t// in\n    tag_136:\n        /* \"#utility.yul\":3750:3785   */\n      swap1\n      pop\n        /* \"#utility.yul\":3695:3791   */\n      swap2\n      swap1\n      pop\n      jump\t// out\n        /* \"#utility.yul\":3797:3915   */\n    tag_69:\n        /* \"#utility.yul\":3884:3908   */\n      tag_138\n        /* \"#utility.yul\":3902:3907   */\n      dup2\n        /* \"#utility.yul\":3884:3908   */\n      tag_68\n      jump\t// in\n    tag_138:\n        /* \"#utility.yul\":3879:3882   */\n      dup3\n        /* \"#utility.yul\":3872:3909   */\n      mstore\n        /* \"#utility.yul\":3797:3915   */\n      pop\n      pop\n      jump\t// out\n        /* \"#utility.yul\":3921:4143   */\n    tag_12:\n        /* \"#utility.yul\":4014:4018   */\n      0x00\n        /* \"#utility.yul\":4052:4054   */\n      0x20\n        /* \"#utility.yul\":4041:4050   */\n      dup3\n        /* \"#utility.yul\":4037:4055   */\n      add\n        /* \"#utility.yul\":4029:4055   */\n      swap1\n      pop\n        /* \"#utility.yul\":4065:4136   */\n      tag_140\n        /* \"#utility.yul\":4133:4134   */\n      0x00\n        /* \"#utility.yul\":4122:4131   */\n      dup4\n        /* \"#utility.yul\":4118:4135   */\n      add\n        /* \"#utility.yul\":4109:4115   */\n      dup5\n        /* \"#utility.yul\":4065:4136   */\n      tag_69\n      jump\t// in\n    tag_140:\n        /* \"#utility.yul\":3921:4143   */\n      swap3\n      swap2\n      pop\n      pop\n      jump\t// out\n        /* \"#utility.yul\":4149:4271   */\n    tag_70:\n        /* \"#utility.yul\":4222:4246   */\n      tag_142\n        /* \"#utility.yul\":4240:4245   */\n      dup2\n        /* \"#utility.yul\":4222:4246   */\n      tag_68\n      jump\t// in\n    tag_142:\n        /* \"#utility.yul\":4215:4220   */\n      dup2\n        /* \"#utility.yul\":4212:4247   */\n      eq\n        /* \"#utility.yul\":4202:4265   */\n      tag_143\n      jumpi\n        /* \"#utility.yul\":4261:4262   */\n      0x00\n        /* \"#utility.yul\":4258:4259   */\n      0x00\n        /* \"#utility.yul\":4251:4263   */\n      revert\n        /* \"#utility.yul\":4202:4265   */\n    tag_143:\n        /* \"#utility.yul\":4149:4271   */\n      pop\n      jump\t// out\n        /* \"#utility.yul\":4277:4416   */\n    tag_71:\n        /* \"#utility.yul\":4323:4328   */\n      0x00\n        /* \"#utility.yul\":4361:4367   */\n      dup2\n        /* \"#utility.yul\":4348:4368   */\n      calldataload\n        /* \"#utility.yul\":4339:4368   */\n      swap1\n      pop\n        /* \"#utility.yul\":4377:4410   */\n      tag_145\n        /* \"#utility.yul\":4404:4409   */\n      dup2\n        /* \"#utility.yul\":4377:4410   */\n      tag_70\n      jump\t// in\n    tag_145:\n        /* \"#utility.yul\":4277:4416   */\n      swap3\n      swap2\n      pop\n      pop\n      jump\t// out\n        /* \"#utility.yul\":4422:4730   */\n    tag_72:\n        /* \"#utility.yul\":4484:4488   */\n      0x00\n        /* \"#utility.yul\":4574:4592   */\n      0xffffffffffffffff\n        /* \"#utility.yul\":4566:4572   */\n      dup3\n        /* \"#utility.yul\":4563:4593   */\n      gt\n        /* \"#utility.yul\":4560:4616   */\n      iszero\n      tag_147\n      jumpi\n        /* \"#utility.yul\":4596:4614   */\n      tag_148\n      tag_60\n      jump\t// in\n    tag_148:\n        /* \"#utility.yul\":4560:4616   */\n    tag_147:\n        /* \"#utility.yul\":4634:4663   */\n      tag_149\n        /* \"#utility.yul\":4656:4662   */\n      dup3\n        /* \"#utility.yul\":4634:4663   */\n      tag_59\n      jump\t// in\n    tag_149:\n        /* \"#utility.yul\":4626:4663   */\n      swap1\n      pop\n        /* \"#utility.yul\":4718:4722   */\n      0x20\n        /* \"#utility.yul\":4712:4716   */\n      dup2\n        /* \"#utility.yul\":4708:4723   */\n      add\n        /* \"#utility.yul\":4700:4723   */\n      swap1\n      pop\n        /* \"#utility.yul\":4422:4730   */\n      swap2\n      swap1\n      pop\n      jump\t// out\n        /* \"#utility.yul\":4736:5161   */\n    tag_73:\n        /* \"#utility.yul\":4814:4819   */\n      0x00\n        /* \"#utility.yul\":4839:4905   */\n      tag_151\n        /* \"#utility.yul\":4855:4904   */\n      tag_152\n        /* \"#utility.yul\":4897:4903   */\n      dup5\n        /* \"#utility.yul\":4855:4904   */\n      tag_72\n      jump\t// in\n    tag_152:\n        /* \"#utility.yul\":4839:4905   */\n      tag_62\n      jump\t// in\n    tag_151:\n        /* \"#utility.yul\":4830:4905   */\n      swap1\n      pop\n        /* \"#utility.yul\":4928:4934   */\n      dup3\n        /* \"#utility.yul\":4921:4926   */\n      dup2\n        /* \"#utility.yul\":4914:4935   */\n      mstore\n        /* \"#utility.yul\":4966:4970   */\n      0x20\n        /* \"#utility.yul\":4959:4964   */\n      dup2\n        /* \"#utility.yul\":4955:4971   */\n      add\n        /* \"#utility.yul\":5004:5007   */\n      dup5\n        /* \"#utility.yul\":4995:5001   */\n      dup5\n        /* \"#utility.yul\":4990:4993   */\n      dup5\n        /* \"#utility.yul\":4986:5002   */\n      add\n        /* \"#utility.yul\":4983:5008   */\n      gt\n        /* \"#utility.yul\":4980:5092   */\n      iszero\n      tag_153\n      jumpi\n        /* \"#utility.yul\":5011:5090   */\n      tag_154\n      tag_58\n      jump\t// in\n    tag_154:\n        /* \"#utility.yul\":4980:5092   */\n    tag_153:\n        /* \"#utility.yul\":5101:5155   */\n      tag_155\n        /* \"#utility.yul\":5148:5154   */\n      dup5\n        /* \"#utility.yul\":5143:5146   */\n      dup3\n        /* \"#utility.yul\":5138:5141   */\n      dup6\n        /* \"#utility.yul\":5101:5155   */\n      tag_64\n      jump\t// in\n    tag_155:\n        /* \"#utility.yul\":4820:5161   */\n      pop\n        /* \"#utility.yul\":4736:5161   */\n      swap4\n      swap3\n      pop\n      pop\n      pop\n      jump\t// out\n        /* \"#utility.yul\":5181:5521   */\n    tag_74:\n        /* \"#utility.yul\":5237:5242   */\n      0x00\n        /* \"#utility.yul\":5286:5289   */\n      dup3\n        /* \"#utility.yul\":5279:5283   */\n      0x1f\n        /* \"#utility.yul\":5271:5277   */\n      dup4\n        /* \"#utility.yul\":5267:5284   */\n      add\n        /* \"#utility.yul\":5263:5290   */\n      slt\n        /* \"#utility.yul\":5253:5375   */\n      tag_157\n      jumpi\n        /* \"#utility.yul\":5294:5373   */\n      tag_158\n      tag_57\n      jump\t// in\n    tag_158:\n        /* \"#utility.yul\":5253:5375   */\n    tag_157:\n        /* \"#utility.yul\":5411:5417   */\n      dup2\n        /* \"#utility.yul\":5398:5418   */\n      calldataload\n        /* \"#utility.yul\":5436:5515   */\n      tag_159\n        /* \"#utility.yul\":5511:5514   */\n      dup5\n        /* \"#utility.yul\":5503:5509   */\n      dup3\n        /* \"#utility.yul\":5496:5500   */\n      0x20\n        /* \"#utility.yul\":5488:5494   */\n      dup7\n        /* \"#utility.yul\":5484:5501   */\n      add\n        /* \"#utility.yul\":5436:5515   */\n      tag_73\n      jump\t// in\n    tag_159:\n        /* \"#utility.yul\":5427:5515   */\n      swap2\n      pop\n        /* \"#utility.yul\":5243:5521   */\n      pop\n        /* \"#utility.yul\":5181:5521   */\n      swap3\n      swap2\n      pop\n      pop\n      jump\t// out\n        /* \"#utility.yul\":5527:6504   */\n    tag_15:\n        /* \"#utility.yul\":5623:5629   */\n      0x00\n        /* \"#utility.yul\":5631:5637   */\n      0x00\n        /* \"#utility.yul\":5639:5645   */\n      0x00\n        /* \"#utility.yul\":5688:5690   */\n      0x60\n        /* \"#utility.yul\":5676:5685   */\n      dup5\n        /* \"#utility.yul\":5667:5674   */\n      dup7\n        /* \"#utility.yul\":5663:5686   */\n      sub\n        /* \"#utility.yul\":5659:5691   */\n      slt\n        /* \"#utility.yul\":5656:5775   */\n      iszero\n      tag_161\n      jumpi\n        /* \"#utility.yul\":5694:5773   */\n      tag_162\n      tag_52\n      jump\t// in\n    tag_162:\n        /* \"#utility.yul\":5656:5775   */\n    tag_161:\n        /* \"#utility.yul\":5814:5815   */\n      0x00\n        /* \"#utility.yul\":5839:5892   */\n      tag_163\n        /* \"#utility.yul\":5884:5891   */\n      dup7\n        /* \"#utility.yul\":5875:5881   */\n      dup3\n        /* \"#utility.yul\":5864:5873   */\n      dup8\n        /* \"#utility.yul\":5860:5882   */\n      add\n        /* \"#utility.yul\":5839:5892   */\n      tag_71\n      jump\t// in\n    tag_163:\n        /* \"#utility.yul\":5829:5892   */\n      swap4\n      pop\n        /* \"#utility.yul\":5785:5902   */\n      pop\n        /* \"#utility.yul\":5969:5971   */\n      0x20\n        /* \"#utility.yul\":5958:5967   */\n      dup5\n        /* \"#utility.yul\":5954:5972   */\n      add\n        /* \"#utility.yul\":5941:5973   */\n      calldataload\n        /* \"#utility.yul\":6000:6018   */\n      0xffffffffffffffff\n        /* \"#utility.yul\":5992:5998   */\n      dup2\n        /* \"#utility.yul\":5989:6019   */\n      gt\n        /* \"#utility.yul\":5986:6103   */\n      iszero\n      tag_164\n      jumpi\n        /* \"#utility.yul\":6022:6101   */\n      tag_165\n      tag_53\n      jump\t// in\n    tag_165:\n        /* \"#utility.yul\":5986:6103   */\n    tag_164:\n        /* \"#utility.yul\":6127:6190   */\n      tag_166\n        /* \"#utility.yul\":6182:6189   */\n      dup7\n        /* \"#utility.yul\":6173:6179   */\n      dup3\n        /* \"#utility.yul\":6162:6171   */\n      dup8\n        /* \"#utility.yul\":6158:6180   */\n      add\n        /* \"#utility.yul\":6127:6190   */\n      tag_74\n      jump\t// in\n    tag_166:\n        /* \"#utility.yul\":6117:6190   */\n      swap3\n      pop\n        /* \"#utility.yul\":5912:6200   */\n      pop\n        /* \"#utility.yul\":6267:6269   */\n      0x40\n        /* \"#utility.yul\":6256:6265   */\n      dup5\n        /* \"#utility.yul\":6252:6270   */\n      add\n        /* \"#utility.yul\":6239:6271   */\n      calldataload\n        /* \"#utility.yul\":6298:6316   */\n      0xffffffffffffffff\n        /* \"#utility.yul\":6290:6296   */\n      dup2\n        /* \"#utility.yul\":6287:6317   */\n      gt\n        /* \"#utility.yul\":6284:6401   */\n      iszero\n      tag_167\n      jumpi\n        /* \"#utility.yul\":6320:6399   */\n      tag_168\n      tag_53\n      jump\t// in\n    tag_168:\n        /* \"#utility.yul\":6284:6401   */\n    tag_167:\n        /* \"#utility.yul\":6425:6487   */\n      tag_169\n        /* \"#utility.yul\":6479:6486   */\n      dup7\n        /* \"#utility.yul\":6470:6476   */\n      dup3\n        /* \"#utility.yul\":6459:6468   */\n      dup8\n        /* \"#utility.yul\":6455:6477   */\n      add\n        /* \"#utility.yul\":6425:6487   */\n      tag_66\n      jump\t// in\n    tag_169:\n        /* \"#utility.yul\":6415:6487   */\n      swap2\n      pop\n        /* \"#utility.yul\":6210:6497   */\n      pop\n        /* \"#utility.yul\":5527:6504   */\n      swap3\n      pop\n      swap3\n      pop\n      swap3\n      jump\t// out\n        /* \"#utility.yul\":6510:6600   */\n    tag_75:\n        /* \"#utility.yul\":6544:6551   */\n      0x00\n        /* \"#utility.yul\":6587:6592   */\n      dup2\n        /* \"#utility.yul\":6580:6593   */\n      iszero\n        /* \"#utility.yul\":6573:6594   */\n      iszero\n        /* \"#utility.yul\":6562:6594   */\n      swap1\n      pop\n        /* \"#utility.yul\":6510:6600   */\n      swap2\n      swap1\n      pop\n      jump\t// out\n        /* \"#utility.yul\":6606:6715   */\n    tag_76:\n        /* \"#utility.yul\":6687:6708   */\n      tag_172\n        /* \"#utility.yul\":6702:6707   */\n      dup2\n        /* \"#utility.yul\":6687:6708   */\n      tag_75\n      jump\t// in\n    tag_172:\n        /* \"#utility.yul\":6682:6685   */\n      dup3\n        /* \"#utility.yul\":6675:6709   */\n      mstore\n        /* \"#utility.yul\":6606:6715   */\n      pop\n      pop\n      jump\t// out\n        /* \"#utility.yul\":6721:6931   */\n    tag_18:\n        /* \"#utility.yul\":6808:6812   */\n      0x00\n        /* \"#utility.yul\":6846:6848   */\n      0x20\n        /* \"#utility.yul\":6835:6844   */\n      dup3\n        /* \"#utility.yul\":6831:6849   */\n      add\n        /* \"#utility.yul\":6823:6849   */\n      swap1\n      pop\n        /* \"#utility.yul\":6859:6924   */\n      tag_174\n        /* \"#utility.yul\":6921:6922   */\n      0x00\n        /* \"#utility.yul\":6910:6919   */\n      dup4\n        /* \"#utility.yul\":6906:6923   */\n      add\n        /* \"#utility.yul\":6897:6903   */\n      dup5\n        /* \"#utility.yul\":6859:6924   */\n      tag_76\n      jump\t// in\n    tag_174:\n        /* \"#utility.yul\":6721:6931   */\n      swap3\n      swap2\n      pop\n      pop\n      jump\t// out\n        /* \"#utility.yul\":6937:7446   */\n    tag_21:\n        /* \"#utility.yul\":7006:7012   */\n      0x00\n        /* \"#utility.yul\":7055:7057   */\n      0x20\n        /* \"#utility.yul\":7043:7052   */\n      dup3\n        /* \"#utility.yul\":7034:7041   */\n      dup5\n        /* \"#utility.yul\":7030:7053   */\n      sub\n        /* \"#utility.yul\":7026:7058   */\n      slt\n        /* \"#utility.yul\":7023:7142   */\n      iszero\n      tag_176\n      jumpi\n        /* \"#utility.yul\":7061:7140   */\n      tag_177\n      tag_52\n      jump\t// in\n    tag_177:\n        /* \"#utility.yul\":7023:7142   */\n    tag_176:\n        /* \"#utility.yul\":7209:7210   */\n      0x00\n        /* \"#utility.yul\":7198:7207   */\n      dup3\n        /* \"#utility.yul\":7194:7211   */\n      add\n        /* \"#utility.yul\":7181:7212   */\n      calldataload\n        /* \"#utility.yul\":7239:7257   */\n      0xffffffffffffffff\n        /* \"#utility.yul\":7231:7237   */\n      dup2\n        /* \"#utility.yul\":7228:7258   */\n      gt\n        /* \"#utility.yul\":7225:7342   */\n      iszero\n      tag_178\n      jumpi\n        /* \"#utility.yul\":7261:7340   */\n      tag_179\n      tag_53\n      jump\t// in\n    tag_179:\n        /* \"#utility.yul\":7225:7342   */\n    tag_178:\n        /* \"#utility.yul\":7366:7429   */\n      tag_180\n        /* \"#utility.yul\":7421:7428   */\n      dup5\n        /* \"#utility.yul\":7412:7418   */\n      dup3\n        /* \"#utility.yul\":7401:7410   */\n      dup6\n        /* \"#utility.yul\":7397:7419   */\n      add\n        /* \"#utility.yul\":7366:7429   */\n      tag_74\n      jump\t// in\n    tag_180:\n        /* \"#utility.yul\":7356:7429   */\n      swap2\n      pop\n        /* \"#utility.yul\":7152:7439   */\n      pop\n        /* \"#utility.yul\":6937:7446   */\n      swap3\n      swap2\n      pop\n      pop\n      jump\t// out\n        /* \"#utility.yul\":7452:7570   */\n    tag_77:\n        /* \"#utility.yul\":7539:7563   */\n      tag_182\n        /* \"#utility.yul\":7557:7562   */\n      dup2\n        /* \"#utility.yul\":7539:7563   */\n      tag_54\n      jump\t// in\n    tag_182:\n        /* \"#utility.yul\":7534:7537   */\n      dup3\n        /* \"#utility.yul\":7527:7564   */\n      mstore\n        /* \"#utility.yul\":7452:7570   */\n      pop\n      pop\n      jump\t// out\n        /* \"#utility.yul\":7576:7798   */\n    tag_24:\n        /* \"#utility.yul\":7669:7673   */\n      0x00\n        /* \"#utility.yul\":7707:7709   */\n      0x20\n        /* \"#utility.yul\":7696:7705   */\n      dup3\n        /* \"#utility.yul\":7692:7710   */\n      add\n        /* \"#utility.yul\":7684:7710   */\n      swap1\n      pop\n        /* \"#utility.yul\":7720:7791   */\n      tag_184\n        /* \"#utility.yul\":7788:7789   */\n      0x00\n        /* \"#utility.yul\":7777:7786   */\n      dup4\n        /* \"#utility.yul\":7773:7790   */\n      add\n        /* \"#utility.yul\":7764:7770   */\n      dup5\n        /* \"#utility.yul\":7720:7791   */\n      tag_77\n      jump\t// in\n    tag_184:\n        /* \"#utility.yul\":7576:7798   */\n      swap3\n      swap2\n      pop\n      pop\n      jump\t// out\n        /* \"#utility.yul\":7804:8133   */\n    tag_27:\n        /* \"#utility.yul\":7863:7869   */\n      0x00\n        /* \"#utility.yul\":7912:7914   */\n      0x20\n        /* \"#utility.yul\":7900:7909   */\n      dup3\n        /* \"#utility.yul\":7891:7898   */\n      dup5\n        /* \"#utility.yul\":7887:7910   */\n      sub\n        /* \"#utility.yul\":7883:7915   */\n      slt\n        /* \"#utility.yul\":7880:7999   */\n      iszero\n      tag_186\n      jumpi\n        /* \"#utility.yul\":7918:7997   */\n      tag_187\n      tag_52\n      jump\t// in\n    tag_187:\n        /* \"#utility.yul\":7880:7999   */\n    tag_186:\n        /* \"#utility.yul\":8038:8039   */\n      0x00\n        /* \"#utility.yul\":8063:8116   */\n      tag_188\n        /* \"#utility.yul\":8108:8115   */\n      dup5\n        /* \"#utility.yul\":8099:8105   */\n      dup3\n        /* \"#utility.yul\":8088:8097   */\n      dup6\n        /* \"#utility.yul\":8084:8106   */\n      add\n        /* \"#utility.yul\":8063:8116   */\n      tag_56\n      jump\t// in\n    tag_188:\n        /* \"#utility.yul\":8053:8116   */\n      swap2\n      pop\n        /* \"#utility.yul\":8009:8126   */\n      pop\n        /* \"#utility.yul\":7804:8133   */\n      swap3\n      swap2\n      pop\n      pop\n      jump\t// out\n        /* \"#utility.yul\":8139:8225   */\n    tag_78:\n        /* \"#utility.yul\":8174:8181   */\n      0x00\n        /* \"#utility.yul\":8214:8218   */\n      0xff\n        /* \"#utility.yul\":8207:8212   */\n      dup3\n        /* \"#utility.yul\":8203:8219   */\n      and\n        /* \"#utility.yul\":8192:8219   */\n      swap1\n      pop\n        /* \"#utility.yul\":8139:8225   */\n      swap2\n      swap1\n      pop\n      jump\t// out\n        /* \"#utility.yul\":8231:8343   */\n    tag_79:\n        /* \"#utility.yul\":8314:8336   */\n      tag_191\n        /* \"#utility.yul\":8330:8335   */\n      dup2\n        /* \"#utility.yul\":8314:8336   */\n      tag_78\n      jump\t// in\n    tag_191:\n        /* \"#utility.yul\":8309:8312   */\n      dup3\n        /* \"#utility.yul\":8302:8337   */\n      mstore\n        /* \"#utility.yul\":8231:8343   */\n      pop\n      pop\n      jump\t// out\n        /* \"#utility.yul\":8349:8894   */\n    tag_34:\n        /* \"#utility.yul\":8522:8526   */\n      0x00\n        /* \"#utility.yul\":8560:8563   */\n      0x80\n        /* \"#utility.yul\":8549:8558   */\n      dup3\n        /* \"#utility.yul\":8545:8564   */\n      add\n        /* \"#utility.yul\":8537:8564   */\n      swap1\n      pop\n        /* \"#utility.yul\":8574:8645   */\n      tag_193\n        /* \"#utility.yul\":8642:8643   */\n      0x00\n        /* \"#utility.yul\":8631:8640   */\n      dup4\n        /* \"#utility.yul\":8627:8644   */\n      add\n        /* \"#utility.yul\":8618:8624   */\n      dup8\n        /* \"#utility.yul\":8574:8645   */\n      tag_77\n      jump\t// in\n    tag_193:\n        /* \"#utility.yul\":8655:8723   */\n      tag_194\n        /* \"#utility.yul\":8719:8721   */\n      0x20\n        /* \"#utility.yul\":8708:8717   */\n      dup4\n        /* \"#utility.yul\":8704:8722   */\n      add\n        /* \"#utility.yul\":8695:8701   */\n      dup7\n        /* \"#utility.yul\":8655:8723   */\n      tag_79\n      jump\t// in\n    tag_194:\n        /* \"#utility.yul\":8733:8805   */\n      tag_195\n        /* \"#utility.yul\":8801:8803   */\n      0x40\n        /* \"#utility.yul\":8790:8799   */\n      dup4\n        /* \"#utility.yul\":8786:8804   */\n      add\n        /* \"#utility.yul\":8777:8783   */\n      dup6\n        /* \"#utility.yul\":8733:8805   */\n      tag_77\n      jump\t// in\n    tag_195:\n        /* \"#utility.yul\":8815:8887   */\n      tag_196\n        /* \"#utility.yul\":8883:8885   */\n      0x60\n        /* \"#utility.yul\":8872:8881   */\n      dup4\n        /* \"#utility.yul\":8868:8886   */\n      add\n        /* \"#utility.yul\":8859:8865   */\n      dup5\n        /* \"#utility.yul\":8815:8887   */\n      tag_77\n      jump\t// in\n    tag_196:\n        /* \"#utility.yul\":8349:8894   */\n      swap6\n      swap5\n      pop\n      pop\n      pop\n      pop\n      pop\n      jump\t// out\n        /* \"#utility.yul\":8900:8999   */\n    tag_80:\n        /* \"#utility.yul\":8952:8958   */\n      0x00\n        /* \"#utility.yul\":8986:8991   */\n      dup2\n        /* \"#utility.yul\":8980:8992   */\n      mload\n        /* \"#utility.yul\":8970:8992   */\n      swap1\n      pop\n        /* \"#utility.yul\":8900:8999   */\n      swap2\n      swap1\n      pop\n      jump\t// out\n        /* \"#utility.yul\":9005:9153   */\n    tag_81:\n        /* \"#utility.yul\":9107:9118   */\n      0x00\n        /* \"#utility.yul\":9144:9147   */\n      dup2\n        /* \"#utility.yul\":9129:9147   */\n      swap1\n      pop\n        /* \"#utility.yul\":9005:9153   */\n      swap3\n      swap2\n      pop\n      pop\n      jump\t// out\n        /* \"#utility.yul\":9159:9298   */\n    tag_82:\n        /* \"#utility.yul\":9248:9254   */\n      dup3\n        /* \"#utility.yul\":9243:9246   */\n      dup2\n        /* \"#utility.yul\":9238:9241   */\n      dup4\n        /* \"#utility.yul\":9232:9255   */\n      mcopy\n        /* \"#utility.yul\":9289:9290   */\n      0x00\n        /* \"#utility.yul\":9280:9286   */\n      dup4\n        /* \"#utility.yul\":9275:9278   */\n      dup4\n        /* \"#utility.yul\":9271:9287   */\n      add\n        /* \"#utility.yul\":9264:9291   */\n      mstore\n        /* \"#utility.yul\":9159:9298   */\n      pop\n      pop\n      pop\n      jump\t// out\n        /* \"#utility.yul\":9304:9694   */\n    tag_83:\n        /* \"#utility.yul\":9410:9413   */\n      0x00\n        /* \"#utility.yul\":9438:9477   */\n      tag_201\n        /* \"#utility.yul\":9471:9476   */\n      dup3\n        /* \"#utility.yul\":9438:9477   */\n      tag_80\n      jump\t// in\n    tag_201:\n        /* \"#utility.yul\":9493:9582   */\n      tag_202\n        /* \"#utility.yul\":9575:9581   */\n      dup2\n        /* \"#utility.yul\":9570:9573   */\n      dup6\n        /* \"#utility.yul\":9493:9582   */\n      tag_81\n      jump\t// in\n    tag_202:\n        /* \"#utility.yul\":9486:9582   */\n      swap4\n      pop\n        /* \"#utility.yul\":9591:9656   */\n      tag_203\n        /* \"#utility.yul\":9649:9655   */\n      dup2\n        /* \"#utility.yul\":9644:9647   */\n      dup6\n        /* \"#utility.yul\":9637:9641   */\n      0x20\n        /* \"#utility.yul\":9630:9635   */\n      dup7\n        /* \"#utility.yul\":9626:9642   */\n      add\n        /* \"#utility.yul\":9591:9656   */\n      tag_82\n      jump\t// in\n    tag_203:\n        /* \"#utility.yul\":9681:9687   */\n      dup1\n        /* \"#utility.yul\":9676:9679   */\n      dup5\n        /* \"#utility.yul\":9672:9688   */\n      add\n        /* \"#utility.yul\":9665:9688   */\n      swap2\n      pop\n        /* \"#utility.yul\":9414:9694   */\n      pop\n        /* \"#utility.yul\":9304:9694   */\n      swap3\n      swap2\n      pop\n      pop\n      jump\t// out\n        /* \"#utility.yul\":9700:9975   */\n    tag_43:\n        /* \"#utility.yul\":9832:9835   */\n      0x00\n        /* \"#utility.yul\":9854:9949   */\n      tag_205\n        /* \"#utility.yul\":9945:9948   */\n      dup3\n        /* \"#utility.yul\":9936:9942   */\n      dup5\n        /* \"#utility.yul\":9854:9949   */\n      tag_83\n      jump\t// in\n    tag_205:\n        /* \"#utility.yul\":9847:9949   */\n      swap2\n      pop\n        /* \"#utility.yul\":9966:9969   */\n      dup2\n        /* \"#utility.yul\":9959:9969   */\n      swap1\n      pop\n        /* \"#utility.yul\":9700:9975   */\n      swap3\n      swap2\n      pop\n      pop\n      jump\t// out\n        /* \"#utility.yul\":9981:10195   */\n    tag_84:\n        /* \"#utility.yul\":10121:10187   */\n      0x19457468657265756d205369676e6564204d6573736167653a0a333200000000\n        /* \"#utility.yul\":10117:10118   */\n      0x00\n        /* \"#utility.yul\":10109:10115   */\n      dup3\n        /* \"#utility.yul\":10105:10119   */\n      add\n        /* \"#utility.yul\":10098:10188   */\n      mstore\n        /* \"#utility.yul\":9981:10195   */\n      pop\n      jump\t// out\n        /* \"#utility.yul\":10201:10603   */\n    tag_85:\n        /* \"#utility.yul\":10361:10364   */\n      0x00\n        /* \"#utility.yul\":10382:10467   */\n      tag_208\n        /* \"#utility.yul\":10464:10466   */\n      0x1c\n        /* \"#utility.yul\":10459:10462   */\n      dup4\n        /* \"#utility.yul\":10382:10467   */\n      tag_81\n      jump\t// in\n    tag_208:\n        /* \"#utility.yul\":10375:10467   */\n      swap2\n      pop\n        /* \"#utility.yul\":10476:10569   */\n      tag_209\n        /* \"#utility.yul\":10565:10568   */\n      dup3\n        /* \"#utility.yul\":10476:10569   */\n      tag_84\n      jump\t// in\n    tag_209:\n        /* \"#utility.yul\":10594:10596   */\n      0x1c\n        /* \"#utility.yul\":10589:10592   */\n      dup3\n        /* \"#utility.yul\":10585:10597   */\n      add\n        /* \"#utility.yul\":10578:10597   */\n      swap1\n      pop\n        /* \"#utility.yul\":10201:10603   */\n      swap2\n      swap1\n      pop\n      jump\t// out\n        /* \"#utility.yul\":10609:10688   */\n    tag_86:\n        /* \"#utility.yul\":10648:10655   */\n      0x00\n        /* \"#utility.yul\":10677:10682   */\n      dup2\n        /* \"#utility.yul\":10666:10682   */\n      swap1\n      pop\n        /* \"#utility.yul\":10609:10688   */\n      swap2\n      swap1\n      pop\n      jump\t// out\n        /* \"#utility.yul\":10694:10851   */\n    tag_87:\n        /* \"#utility.yul\":10799:10844   */\n      tag_212\n        /* \"#utility.yul\":10819:10843   */\n      tag_213\n        /* \"#utility.yul\":10837:10842   */\n      dup3\n        /* \"#utility.yul\":10819:10843   */\n      tag_54\n      jump\t// in\n    tag_213:\n        /* \"#utility.yul\":10799:10844   */\n      tag_86\n      jump\t// in\n    tag_212:\n        /* \"#utility.yul\":10794:10797   */\n      dup3\n        /* \"#utility.yul\":10787:10845   */\n      mstore\n        /* \"#utility.yul\":10694:10851   */\n      pop\n      pop\n      jump\t// out\n        /* \"#utility.yul\":10857:11379   */\n    tag_46:\n        /* \"#utility.yul\":11070:11073   */\n      0x00\n        /* \"#utility.yul\":11092:11240   */\n      tag_215\n        /* \"#utility.yul\":11236:11239   */\n      dup3\n        /* \"#utility.yul\":11092:11240   */\n      tag_85\n      jump\t// in\n    tag_215:\n        /* \"#utility.yul\":11085:11240   */\n      swap2\n      pop\n        /* \"#utility.yul\":11250:11325   */\n      tag_216\n        /* \"#utility.yul\":11321:11324   */\n      dup3\n        /* \"#utility.yul\":11312:11318   */\n      dup5\n        /* \"#utility.yul\":11250:11325   */\n      tag_87\n      jump\t// in\n    tag_216:\n        /* \"#utility.yul\":11350:11352   */\n      0x20\n        /* \"#utility.yul\":11345:11348   */\n      dup3\n        /* \"#utility.yul\":11341:11353   */\n      add\n        /* \"#utility.yul\":11334:11353   */\n      swap2\n      pop\n        /* \"#utility.yul\":11370:11373   */\n      dup2\n        /* \"#utility.yul\":11363:11373   */\n      swap1\n      pop\n        /* \"#utility.yul\":10857:11379   */\n      swap3\n      swap2\n      pop\n      pop\n      jump\t// out\n        /* \"#utility.yul\":11385:11554   */\n    tag_88:\n        /* \"#utility.yul\":11469:11480   */\n      0x00\n        /* \"#utility.yul\":11503:11509   */\n      dup3\n        /* \"#utility.yul\":11498:11501   */\n      dup3\n        /* \"#utility.yul\":11491:11510   */\n      mstore\n        /* \"#utility.yul\":11543:11547   */\n      0x20\n        /* \"#utility.yul\":11538:11541   */\n      dup3\n        /* \"#utility.yul\":11534:11548   */\n      add\n        /* \"#utility.yul\":11519:11548   */\n      swap1\n      pop\n        /* \"#utility.yul\":11385:11554   */\n      swap3\n      swap2\n      pop\n      pop\n      jump\t// out\n        /* \"#utility.yul\":11560:11734   */\n    tag_89:\n        /* \"#utility.yul\":11700:11726   */\n      0x696e76616c6964207369676e6174757265206c656e6774680000000000000000\n        /* \"#utility.yul\":11696:11697   */\n      0x00\n        /* \"#utility.yul\":11688:11694   */\n      dup3\n        /* \"#utility.yul\":11684:11698   */\n      add\n        /* \"#utility.yul\":11677:11727   */\n      mstore\n        /* \"#utility.yul\":11560:11734   */\n      pop\n      jump\t// out\n        /* \"#utility.yul\":11740:12106   */\n    tag_90:\n        /* \"#utility.yul\":11882:11885   */\n      0x00\n        /* \"#utility.yul\":11903:11970   */\n      tag_220\n        /* \"#utility.yul\":11967:11969   */\n      0x18\n        /* \"#utility.yul\":11962:11965   */\n      dup4\n        /* \"#utility.yul\":11903:11970   */\n      tag_88\n      jump\t// in\n    tag_220:\n        /* \"#utility.yul\":11896:11970   */\n      swap2\n      pop\n        /* \"#utility.yul\":11979:12072   */\n      tag_221\n        /* \"#utility.yul\":12068:12071   */\n      dup3\n        /* \"#utility.yul\":11979:12072   */\n      tag_89\n      jump\t// in\n    tag_221:\n        /* \"#utility.yul\":12097:12099   */\n      0x20\n        /* \"#utility.yul\":12092:12095   */\n      dup3\n        /* \"#utility.yul\":12088:12100   */\n      add\n        /* \"#utility.yul\":12081:12100   */\n      swap1\n      pop\n        /* \"#utility.yul\":11740:12106   */\n      swap2\n      swap1\n      pop\n      jump\t// out\n        /* \"#utility.yul\":12112:12531   */\n    tag_50:\n        /* \"#utility.yul\":12278:12282   */\n      0x00\n        /* \"#utility.yul\":12316:12318   */\n      0x20\n        /* \"#utility.yul\":12305:12314   */\n      dup3\n        /* \"#utility.yul\":12301:12319   */\n      add\n        /* \"#utility.yul\":12293:12319   */\n      swap1\n      pop\n        /* \"#utility.yul\":12365:12374   */\n      dup2\n        /* \"#utility.yul\":12359:12363   */\n      dup2\n        /* \"#utility.yul\":12355:12375   */\n      sub\n        /* \"#utility.yul\":12351:12352   */\n      0x00\n        /* \"#utility.yul\":12340:12349   */\n      dup4\n        /* \"#utility.yul\":12336:12353   */\n      add\n        /* \"#utility.yul\":12329:12376   */\n      mstore\n        /* \"#utility.yul\":12393:12524   */\n      tag_223\n        /* \"#utility.yul\":12519:12523   */\n      dup2\n        /* \"#utility.yul\":12393:12524   */\n      tag_90\n      jump\t// in\n    tag_223:\n        /* \"#utility.yul\":12385:12524   */\n      swap1\n      pop\n        /* \"#utility.yul\":12112:12531   */\n      swap2\n      swap1\n      pop\n      jump\t// out\n\n    auxdata: 0xa2646970667358221220d75eec00a1a95ed562315ba8eacaf5ddebc086d1d0fe934a4d02b09b94907d4b64736f6c634300081e0033\n}\n",
				"bytecode": {
					"linkReferences": {},
					"object": "6080604052348015600e575f5ffd5b506108e98061001c5f395ff3fe608060405234801561000f575f5ffd5b506004361061004a575f3560e01c806319045a251461004e5780632dd34f0f1461007e578063b446f3b2146100ae578063fa540801146100de575b5f5ffd5b61006860048036038101906100639190610417565b61010e565b60405161007591906104b0565b60405180910390f35b61009860048036038101906100939190610591565b610178565b6040516100a59190610633565b60405180910390f35b6100c860048036038101906100c3919061064c565b6101d4565b6040516100d591906106a2565b60405180910390f35b6100f860048036038101906100f391906106bb565b610203565b60405161010591906106a2565b60405180910390f35b5f5f5f5f61011b85610232565b9250925092506001868285856040515f81526020016040526040516101439493929190610701565b6020604051602081039080840390855afa158015610163573d5f5f3e3d5ffd5b50505060206040510351935050505092915050565b5f5f610183846101d4565b90505f61018f82610203565b90508573ffffffffffffffffffffffffffffffffffffffff166101b2828661010e565b73ffffffffffffffffffffffffffffffffffffffff1614925050509392505050565b5f816040516020016101e69190610796565b604051602081830303815290604052805190602001209050919050565b5f816040516020016102159190610816565b604051602081830303815290604052805190602001209050919050565b5f5f5f6041845114610279576040517f08c379a000000000000000000000000000000000000000000000000000000000815260040161027090610895565b60405180910390fd5b602084015192506040840151915060608401515f1a90509193909250565b5f604051905090565b5f5ffd5b5f5ffd5b5f819050919050565b6102ba816102a8565b81146102c4575f5ffd5b50565b5f813590506102d5816102b1565b92915050565b5f5ffd5b5f5ffd5b5f601f19601f8301169050919050565b7f4e487b71000000000000000000000000000000000000000000000000000000005f52604160045260245ffd5b610329826102e3565b810181811067ffffffffffffffff82111715610348576103476102f3565b5b80604052505050565b5f61035a610297565b90506103668282610320565b919050565b5f67ffffffffffffffff821115610385576103846102f3565b5b61038e826102e3565b9050602081019050919050565b828183375f83830152505050565b5f6103bb6103b68461036b565b610351565b9050828152602081018484840111156103d7576103d66102df565b5b6103e284828561039b565b509392505050565b5f82601f8301126103fe576103fd6102db565b5b813561040e8482602086016103a9565b91505092915050565b5f5f6040838503121561042d5761042c6102a0565b5b5f61043a858286016102c7565b925050602083013567ffffffffffffffff81111561045b5761045a6102a4565b5b610467858286016103ea565b9150509250929050565b5f73ffffffffffffffffffffffffffffffffffffffff82169050919050565b5f61049a82610471565b9050919050565b6104aa81610490565b82525050565b5f6020820190506104c35f8301846104a1565b92915050565b6104d281610490565b81146104dc575f5ffd5b50565b5f813590506104ed816104c9565b92915050565b5f67ffffffffffffffff82111561050d5761050c6102f3565b5b610516826102e3565b9050602081019050919050565b5f610535610530846104f3565b610351565b905082815260208101848484011115610551576105506102df565b5b61055c84828561039b565b509392505050565b5f82601f830112610578576105776102db565b5b8135610588848260208601610523565b91505092915050565b5f5f5f606084860312156105a8576105a76102a0565b5b5f6105b5868287016104df565b935050602084013567ffffffffffffffff8111156105d6576105d56102a4565b5b6105e286828701610564565b925050604084013567ffffffffffffffff811115610603576106026102a4565b5b61060f868287016103ea565b9150509250925092565b5f8115159050919050565b61062d81610619565b82525050565b5f6020820190506106465f830184610624565b92915050565b5f60208284031215610661576106606102a0565b5b5f82013567ffffffffffffffff81111561067e5761067d6102a4565b5b61068a84828501610564565b91505092915050565b61069c816102a8565b82525050565b5f6020820190506106b55f830184610693565b92915050565b5f602082840312156106d0576106cf6102a0565b5b5f6106dd848285016102c7565b91505092915050565b5f60ff82169050919050565b6106fb816106e6565b82525050565b5f6080820190506107145f830187610693565b61072160208301866106f2565b61072e6040830185610693565b61073b6060830184610693565b95945050505050565b5f81519050919050565b5f81905092915050565b8281835e5f83830152505050565b5f61077082610744565b61077a818561074e565b935061078a818560208601610758565b80840191505092915050565b5f6107a18284610766565b915081905092915050565b7f19457468657265756d205369676e6564204d6573736167653a0a3332000000005f82015250565b5f6107e0601c8361074e565b91506107eb826107ac565b601c82019050919050565b5f819050919050565b61081061080b826102a8565b6107f6565b82525050565b5f610820826107d4565b915061082c82846107ff565b60208201915081905092915050565b5f82825260208201905092915050565b7f696e76616c6964207369676e6174757265206c656e67746800000000000000005f82015250565b5f61087f60188361083b565b915061088a8261084b565b602082019050919050565b5f6020820190508181035f8301526108ac81610873565b905091905056fea2646970667358221220d75eec00a1a95ed562315ba8eacaf5ddebc086d1d0fe934a4d02b09b94907d4b64736f6c634300081e0033",
					"opcodes": "PUSH1 0x80 PUSH1 0x40 MSTORE CALLVALUE DUP1 ISZERO PUSH1 0xE JUMPI PUSH0 PUSH0 REVERT JUMPDEST POP PUSH2 0x8E9 DUP1 PUSH2 0x1C PUSH0 CODECOPY PUSH0 RETURN INVALID PUSH1 0x80 PUSH1 0x40 MSTORE CALLVALUE DUP1 ISZERO PUSH2 0xF JUMPI PUSH0 PUSH0 REVERT JUMPDEST POP PUSH1 0x4 CALLDATASIZE LT PUSH2 0x4A JUMPI PUSH0 CALLDATALOAD PUSH1 0xE0 SHR DUP1 PUSH4 0x19045A25 EQ PUSH2 0x4E JUMPI DUP1 PUSH4 0x2DD34F0F EQ PUSH2 0x7E JUMPI DUP1 PUSH4 0xB446F3B2 EQ PUSH2 0xAE JUMPI DUP1 PUSH4 0xFA540801 EQ PUSH2 0xDE JUMPI JUMPDEST PUSH0 PUSH0 REVERT JUMPDEST PUSH2 0x68 PUSH1 0x4 DUP1 CALLDATASIZE SUB DUP2 ADD SWAP1 PUSH2 0x63 SWAP2 SWAP1 PUSH2 0x417 JUMP JUMPDEST PUSH2 0x10E JUMP JUMPDEST PUSH1 0x40 MLOAD PUSH2 0x75 SWAP2 SWAP1 PUSH2 0x4B0 JUMP JUMPDEST PUSH1 0x40 MLOAD DUP1 SWAP2 SUB SWAP1 RETURN JUMPDEST PUSH2 0x98 PUSH1 0x4 DUP1 CALLDATASIZE SUB DUP2 ADD SWAP1 PUSH2 0x93 SWAP2 SWAP1 PUSH2 0x591 JUMP JUMPDEST PUSH2 0x178 JUMP JUMPDEST PUSH1 0x40 MLOAD PUSH2 0xA5 SWAP2 SWAP1 PUSH2 0x633 JUMP JUMPDEST PUSH1 0x40 MLOAD DUP1 SWAP2 SUB SWAP1 RETURN JUMPDEST PUSH2 0xC8 PUSH1 0x4 DUP1 CALLDATASIZE SUB DUP2 ADD SWAP1 PUSH2 0xC3 SWAP2 SWAP1 PUSH2 0x64C JUMP JUMPDEST PUSH2 0x1D4 JUMP JUMPDEST PUSH1 0x40 MLOAD PUSH2 0xD5 SWAP2 SWAP1 PUSH2 0x6A2 JUMP JUMPDEST PUSH1 0x40 MLOAD DUP1 SWAP2 SUB SWAP1 RETURN JUMPDEST PUSH2 0xF8 PUSH1 0x4 DUP1 CALLDATASIZE SUB DUP2 ADD SWAP1 PUSH2 0xF3 SWAP2 SWAP1 PUSH2 0x6BB JUMP JUMPDEST PUSH2 0x203 JUMP JUMPDEST PUSH1 0x40 MLOAD PUSH2 0x105 SWAP2 SWAP1 PUSH2 0x6A2 JUMP JUMPDEST PUSH1 0x40 MLOAD DUP1 SWAP2 SUB SWAP1 RETURN JUMPDEST PUSH0 PUSH0 PUSH0 PUSH0 PUSH2 0x11B DUP6 PUSH2 0x232 JUMP JUMPDEST SWAP3 POP SWAP3 POP SWAP3 POP PUSH1 0x1 DUP7 DUP3 DUP6 DUP6 PUSH1 0x40 MLOAD PUSH0 DUP2 MSTORE PUSH1 0x20 ADD PUSH1 0x40 MSTORE PUSH1 0x40 MLOAD PUSH2 0x143 SWAP5 SWAP4 SWAP3 SWAP2 SWAP1 PUSH2 0x701 JUMP JUMPDEST PUSH1 0x20 PUSH1 0x40 MLOAD PUSH1 0x20 DUP2 SUB SWAP1 DUP1 DUP5 SUB SWAP1 DUP6 GAS STATICCALL ISZERO DUP1 ISZERO PUSH2 0x163 JUMPI RETURNDATASIZE PUSH0 PUSH0 RETURNDATACOPY RETURNDATASIZE PUSH0 REVERT JUMPDEST POP POP POP PUSH1 0x20 PUSH1 0x40 MLOAD SUB MLOAD SWAP4 POP POP POP POP SWAP3 SWAP2 POP POP JUMP JUMPDEST PUSH0 PUSH0 PUSH2 0x183 DUP5 PUSH2 0x1D4 JUMP JUMPDEST SWAP1 POP PUSH0 PUSH2 0x18F DUP3 PUSH2 0x203 JUMP JUMPDEST SWAP1 POP DUP6 PUSH20 0xFFFFFFFFFFFFFFFFFFFFFFFFFFFFFFFFFFFFFFFF AND PUSH2 0x1B2 DUP3 DUP7 PUSH2 0x10E JUMP JUMPDEST PUSH20 0xFFFFFFFFFFFFFFFFFFFFFFFFFFFFFFFFFFFFFFFF AND EQ SWAP3 POP POP POP SWAP4 SWAP3 POP POP POP JUMP JUMPDEST PUSH0 DUP2 PUSH1 0x40 MLOAD PUSH1 0x20 ADD PUSH2 0x1E6 SWAP2 SWAP1 PUSH2 0x796 JUMP JUMPDEST PUSH1 0x40 MLOAD PUSH1 0x20 DUP2 DUP4 SUB SUB DUP2 MSTORE SWAP1 PUSH1 0x40 MSTORE DUP1 MLOAD SWAP1 PUSH1 0x20 ADD KECCAK256 SWAP1 POP SWAP2 SWAP1 POP JUMP JUMPDEST PUSH0 DUP2 PUSH1 0x40 MLOAD PUSH1 0x20 ADD PUSH2 0x215 SWAP2 SWAP1 PUSH2 0x816 JUMP JUMPDEST PUSH1 0x40 MLOAD PUSH1 0x20 DUP2 DUP4 SUB SUB DUP2 MSTORE SWAP1 PUSH1 0x40 MSTORE DUP1 MLOAD SWAP1 PUSH1 0x20 ADD KECCAK256 SWAP1 POP SWAP2 SWAP1 POP JUMP JUMPDEST PUSH0 PUSH0 PUSH0 PUSH1 0x41 DUP5 MLOAD EQ PUSH2 0x279 JUMPI PUSH1 0x40 MLOAD PUSH32 0x8C379A000000000000000000000000000000000000000000000000000000000 DUP2 MSTORE PUSH1 0x4 ADD PUSH2 0x270 SWAP1 PUSH2 0x895 JUMP JUMPDEST PUSH1 0x40 MLOAD DUP1 SWAP2 SUB SWAP1 REVERT JUMPDEST PUSH1 0x20 DUP5 ADD MLOAD SWAP3 POP PUSH1 0x40 DUP5 ADD MLOAD SWAP2 POP PUSH1 0x60 DUP5 ADD MLOAD PUSH0 BYTE SWAP1 POP SWAP2 SWAP4 SWAP1 SWAP3 POP JUMP JUMPDEST PUSH0 PUSH1 0x40 MLOAD SWAP1 POP SWAP1 JUMP JUMPDEST PUSH0 PUSH0 REVERT JUMPDEST PUSH0 PUSH0 REVERT JUMPDEST PUSH0 DUP2 SWAP1 POP SWAP2 SWAP1 POP JUMP JUMPDEST PUSH2 0x2BA DUP2 PUSH2 0x2A8 JUMP JUMPDEST DUP2 EQ PUSH2 0x2C4 JUMPI PUSH0 PUSH0 REVERT JUMPDEST POP JUMP JUMPDEST PUSH0 DUP2 CALLDATALOAD SWAP1 POP PUSH2 0x2D5 DUP2 PUSH2 0x2B1 JUMP JUMPDEST SWAP3 SWAP2 POP POP JUMP JUMPDEST PUSH0 PUSH0 REVERT JUMPDEST PUSH0 PUSH0 REVERT JUMPDEST PUSH0 PUSH1 0x1F NOT PUSH1 0x1F DUP4 ADD AND SWAP1 POP SWAP2 SWAP1 POP JUMP JUMPDEST PUSH32 0x4E487B7100000000000000000000000000000000000000000000000000000000 PUSH0 MSTORE PUSH1 0x41 PUSH1 0x4 MSTORE PUSH1 0x24 PUSH0 REVERT JUMPDEST PUSH2 0x329 DUP3 PUSH2 0x2E3 JUMP JUMPDEST DUP2 ADD DUP2 DUP2 LT PUSH8 0xFFFFFFFFFFFFFFFF DUP3 GT OR ISZERO PUSH2 0x348 JUMPI PUSH2 0x347 PUSH2 0x2F3 JUMP JUMPDEST JUMPDEST DUP1 PUSH1 0x40 MSTORE POP POP POP JUMP JUMPDEST PUSH0 PUSH2 0x35A PUSH2 0x297 JUMP JUMPDEST SWAP1 POP PUSH2 0x366 DUP3 DUP3 PUSH2 0x320 JUMP JUMPDEST SWAP2 SWAP1 POP JUMP JUMPDEST PUSH0 PUSH8 0xFFFFFFFFFFFFFFFF DUP3 GT ISZERO PUSH2 0x385 JUMPI PUSH2 0x384 PUSH2 0x2F3 JUMP JUMPDEST JUMPDEST PUSH2 0x38E DUP3 PUSH2 0x2E3 JUMP JUMPDEST SWAP1 POP PUSH1 0x20 DUP2 ADD SWAP1 POP SWAP2 SWAP1 POP JUMP JUMPDEST DUP3 DUP2 DUP4 CALLDATACOPY PUSH0 DUP4 DUP4 ADD MSTORE POP POP POP JUMP JUMPDEST PUSH0 PUSH2 0x3BB PUSH2 0x3B6 DUP5 PUSH2 0x36B JUMP JUMPDEST PUSH2 0x351 JUMP JUMPDEST SWAP1 POP DUP3 DUP2 MSTORE PUSH1 0x20 DUP2 ADD DUP5 DUP5 DUP5 ADD GT ISZERO PUSH2 0x3D7 JUMPI PUSH2 0x3D6 PUSH2 0x2DF JUMP JUMPDEST JUMPDEST PUSH2 0x3E2 DUP5 DUP3 DUP6 PUSH2 0x39B JUMP JUMPDEST POP SWAP4 SWAP3 POP POP POP JUMP JUMPDEST PUSH0 DUP3 PUSH1 0x1F DUP4 ADD SLT PUSH2 0x3FE JUMPI PUSH2 0x3FD PUSH2 0x2DB JUMP JUMPDEST JUMPDEST DUP2 CALLDATALOAD PUSH2 0x40E DUP5 DUP3 PUSH1 0x20 DUP7 ADD PUSH2 0x3A9 JUMP JUMPDEST SWAP2 POP POP SWAP3 SWAP2 POP POP JUMP JUMPDEST PUSH0 PUSH0 PUSH1 0x40 DUP4 DUP6 SUB SLT ISZERO PUSH2 0x42D JUMPI PUSH2 0x42C PUSH2 0x2A0 JUMP JUMPDEST JUMPDEST PUSH0 PUSH2 0x43A DUP6 DUP3 DUP7 ADD PUSH2 0x2C7 JUMP JUMPDEST SWAP3 POP POP PUSH1 0x20 DUP4 ADD CALLDATALOAD PUSH8 0xFFFFFFFFFFFFFFFF DUP2 GT ISZERO PUSH2 0x45B JUMPI PUSH2 0x45A PUSH2 0x2A4 JUMP JUMPDEST JUMPDEST PUSH2 0x467 DUP6 DUP3 DUP7 ADD PUSH2 0x3EA JUMP JUMPDEST SWAP2 POP POP SWAP3 POP SWAP3 SWAP1 POP JUMP JUMPDEST PUSH0 PUSH20 0xFFFFFFFFFFFFFFFFFFFFFFFFFFFFFFFFFFFFFFFF DUP3 AND SWAP1 POP SWAP2 SWAP1 POP JUMP JUMPDEST PUSH0 PUSH2 0x49A DUP3 PUSH2 0x471 JUMP JUMPDEST SWAP1 POP SWAP2 SWAP1 POP JUMP JUMPDEST PUSH2 0x4AA DUP2 PUSH2 0x490 JUMP JUMPDEST DUP3 MSTORE POP POP JUMP JUMPDEST PUSH0 PUSH1 0x20 DUP3 ADD SWAP1 POP PUSH2 0x4C3 PUSH0 DUP4 ADD DUP5 PUSH2 0x4A1 JUMP JUMPDEST SWAP3 SWAP2 POP POP JUMP JUMPDEST PUSH2 0x4D2 DUP2 PUSH2 0x490 JUMP JUMPDEST DUP2 EQ PUSH2 0x4DC JUMPI PUSH0 PUSH0 REVERT JUMPDEST POP JUMP JUMPDEST PUSH0 DUP2 CALLDATALOAD SWAP1 POP PUSH2 0x4ED DUP2 PUSH2 0x4C9 JUMP JUMPDEST SWAP3 SWAP2 POP POP JUMP JUMPDEST PUSH0 PUSH8 0xFFFFFFFFFFFFFFFF DUP3 GT ISZERO PUSH2 0x50D JUMPI PUSH2 0x50C PUSH2 0x2F3 JUMP JUMPDEST JUMPDEST PUSH2 0x516 DUP3 PUSH2 0x2E3 JUMP JUMPDEST SWAP1 POP PUSH1 0x20 DUP2 ADD SWAP1 POP SWAP2 SWAP1 POP JUMP JUMPDEST PUSH0 PUSH2 0x535 PUSH2 0x530 DUP5 PUSH2 0x4F3 JUMP JUMPDEST PUSH2 0x351 JUMP JUMPDEST SWAP1 POP DUP3 DUP2 MSTORE PUSH1 0x20 DUP2 ADD DUP5 DUP5 DUP5 ADD GT ISZERO PUSH2 0x551 JUMPI PUSH2 0x550 PUSH2 0x2DF JUMP JUMPDEST JUMPDEST PUSH2 0x55C DUP5 DUP3 DUP6 PUSH2 0x39B JUMP JUMPDEST POP SWAP4 SWAP3 POP POP POP JUMP JUMPDEST PUSH0 DUP3 PUSH1 0x1F DUP4 ADD SLT PUSH2 0x578 JUMPI PUSH2 0x577 PUSH2 0x2DB JUMP JUMPDEST JUMPDEST DUP2 CALLDATALOAD PUSH2 0x588 DUP5 DUP3 PUSH1 0x20 DUP7 ADD PUSH2 0x523 JUMP JUMPDEST SWAP2 POP POP SWAP3 SWAP2 POP POP JUMP JUMPDEST PUSH0 PUSH0 PUSH0 PUSH1 0x60 DUP5 DUP7 SUB SLT ISZERO PUSH2 0x5A8 JUMPI PUSH2 0x5A7 PUSH2 0x2A0 JUMP JUMPDEST JUMPDEST PUSH0 PUSH2 0x5B5 DUP7 DUP3 DUP8 ADD PUSH2 0x4DF JUMP JUMPDEST SWAP4 POP POP PUSH1 0x20 DUP5 ADD CALLDATALOAD PUSH8 0xFFFFFFFFFFFFFFFF DUP2 GT ISZERO PUSH2 0x5D6 JUMPI PUSH2 0x5D5 PUSH2 0x2A4 JUMP JUMPDEST JUMPDEST PUSH2 0x5E2 DUP7 DUP3 DUP8 ADD PUSH2 0x564 JUMP JUMPDEST SWAP3 POP POP PUSH1 0x40 DUP5 ADD CALLDATALOAD PUSH8 0xFFFFFFFFFFFFFFFF DUP2 GT ISZERO PUSH2 0x603 JUMPI PUSH2 0x602 PUSH2 0x2A4 JUMP JUMPDEST JUMPDEST PUSH2 0x60F DUP7 DUP3 DUP8 ADD PUSH2 0x3EA JUMP JUMPDEST SWAP2 POP POP SWAP3 POP SWAP3 POP SWAP3 JUMP JUMPDEST PUSH0 DUP2 ISZERO ISZERO SWAP1 POP SWAP2 SWAP1 POP JUMP JUMPDEST PUSH2 0x62D DUP2 PUSH2 0x619 JUMP JUMPDEST DUP3 MSTORE POP POP JUMP JUMPDEST PUSH0 PUSH1 0x20 DUP3 ADD SWAP1 POP PUSH2 0x646 PUSH0 DUP4 ADD DUP5 PUSH2 0x624 JUMP JUMPDEST SWAP3 SWAP2 POP POP JUMP JUMPDEST PUSH0 PUSH1 0x20 DUP3 DUP5 SUB SLT ISZERO PUSH2 0x661 JUMPI PUSH2 0x660 PUSH2 0x2A0 JUMP JUMPDEST JUMPDEST PUSH0 DUP3 ADD CALLDATALOAD PUSH8 0xFFFFFFFFFFFFFFFF DUP2 GT ISZERO PUSH2 0x67E JUMPI PUSH2 0x67D PUSH2 0x2A4 JUMP JUMPDEST JUMPDEST PUSH2 0x68A DUP5 DUP3 DUP6 ADD PUSH2 0x564 JUMP JUMPDEST SWAP2 POP POP SWAP3 SWAP2 POP POP JUMP JUMPDEST PUSH2 0x69C DUP2 PUSH2 0x2A8 JUMP JUMPDEST DUP3 MSTORE POP POP JUMP JUMPDEST PUSH0 PUSH1 0x20 DUP3 ADD SWAP1 POP PUSH2 0x6B5 PUSH0 DUP4 ADD DUP5 PUSH2 0x693 JUMP JUMPDEST SWAP3 SWAP2 POP POP JUMP JUMPDEST PUSH0 PUSH1 0x20 DUP3 DUP5 SUB SLT ISZERO PUSH2 0x6D0 JUMPI PUSH2 0x6CF PUSH2 0x2A0 JUMP JUMPDEST JUMPDEST PUSH0 PUSH2 0x6DD DUP5 DUP3 DUP6 ADD PUSH2 0x2C7 JUMP JUMPDEST SWAP2 POP POP SWAP3 SWAP2 POP POP JUMP JUMPDEST PUSH0 PUSH1 0xFF DUP3 AND SWAP1 POP SWAP2 SWAP1 POP JUMP JUMPDEST PUSH2 0x6FB DUP2 PUSH2 0x6E6 JUMP JUMPDEST DUP3 MSTORE POP POP JUMP JUMPDEST PUSH0 PUSH1 0x80 DUP3 ADD SWAP1 POP PUSH2 0x714 PUSH0 DUP4 ADD DUP8 PUSH2 0x693 JUMP JUMPDEST PUSH2 0x721 PUSH1 0x20 DUP4 ADD DUP7 PUSH2 0x6F2 JUMP JUMPDEST PUSH2 0x72E PUSH1 0x40 DUP4 ADD DUP6 PUSH2 0x693 JUMP JUMPDEST PUSH2 0x73B PUSH1 0x60 DUP4 ADD DUP5 PUSH2 0x693 JUMP JUMPDEST SWAP6 SWAP5 POP POP POP POP POP JUMP JUMPDEST PUSH0 DUP2 MLOAD SWAP1 POP SWAP2 SWAP1 POP JUMP JUMPDEST PUSH0 DUP2 SWAP1 POP SWAP3 SWAP2 POP POP JUMP JUMPDEST DUP3 DUP2 DUP4 MCOPY PUSH0 DUP4 DUP4 ADD MSTORE POP POP POP JUMP JUMPDEST PUSH0 PUSH2 0x770 DUP3 PUSH2 0x744 JUMP JUMPDEST PUSH2 0x77A DUP2 DUP6 PUSH2 0x74E JUMP JUMPDEST SWAP4 POP PUSH2 0x78A DUP2 DUP6 PUSH1 0x20 DUP7 ADD PUSH2 0x758 JUMP JUMPDEST DUP1 DUP5 ADD SWAP2 POP POP SWAP3 SWAP2 POP POP JUMP JUMPDEST PUSH0 PUSH2 0x7A1 DUP3 DUP5 PUSH2 0x766 JUMP JUMPDEST SWAP2 POP DUP2 SWAP1 POP SWAP3 SWAP2 POP POP JUMP JUMPDEST PUSH32 0x19457468657265756D205369676E6564204D6573736167653A0A333200000000 PUSH0 DUP3 ADD MSTORE POP JUMP JUMPDEST PUSH0 PUSH2 0x7E0 PUSH1 0x1C DUP4 PUSH2 0x74E JUMP JUMPDEST SWAP2 POP PUSH2 0x7EB DUP3 PUSH2 0x7AC JUMP JUMPDEST PUSH1 0x1C DUP3 ADD SWAP1 POP SWAP2 SWAP1 POP JUMP JUMPDEST PUSH0 DUP2 SWAP1 POP SWAP2 SWAP1 POP JUMP JUMPDEST PUSH2 0x810 PUSH2 0x80B DUP3 PUSH2 0x2A8 JUMP JUMPDEST PUSH2 0x7F6 JUMP JUMPDEST DUP3 MSTORE POP POP JUMP JUMPDEST PUSH0 PUSH2 0x820 DUP3 PUSH2 0x7D4 JUMP JUMPDEST SWAP2 POP PUSH2 0x82C DUP3 DUP5 PUSH2 0x7FF JUMP JUMPDEST PUSH1 0x20 DUP3 ADD SWAP2 POP DUP2 SWAP1 POP SWAP3 SWAP2 POP POP JUMP JUMPDEST PUSH0 DUP3 DUP3 MSTORE PUSH1 0x20 DUP3 ADD SWAP1 POP SWAP3 SWAP2 POP POP JUMP JUMPDEST PUSH32 0x696E76616C6964207369676E6174757265206C656E6774680000000000000000 PUSH0 DUP3 ADD MSTORE POP JUMP JUMPDEST PUSH0 PUSH2 0x87F PUSH1 0x18 DUP4 PUSH2 0x83B JUMP JUMPDEST SWAP2 POP PUSH2 0x88A DUP3 PUSH2 0x84B JUMP JUMPDEST PUSH1 0x20 DUP3 ADD SWAP1 POP SWAP2 SWAP1 POP JUMP JUMPDEST PUSH0 PUSH1 0x20 DUP3 ADD SWAP1 POP DUP2 DUP2 SUB PUSH0 DUP4 ADD MSTORE PUSH2 0x8AC DUP2 PUSH2 0x873 JUMP JUMPDEST SWAP1 POP SWAP2 SWAP1 POP JUMP INVALID LOG2 PUSH5 0x6970667358 0x22 SLT KECCAK256 0xD7 MCOPY EOFCREATE 0x0 LOG1 0xA9 MCOPY 0xD5 PUSH3 0x315BA8 0xEA 0xCA CREATE2 0xDD 0xEB 0xC0 DUP7 DATALOADN 0xD0FE SWAP4 BLOBBASEFEE 0x4D MUL 0xB0 SWAP12 SWAP5 SWAP1 PUSH30 0x4B64736F6C634300081E0033000000000000000000000000000000000000 "
				},
				"gasEstimates": {
					"creation": {
						"codeDepositCost": "456200",
						"executionCost": "491",
						"totalCost": "456691"
					},
					"external": {
						"getEthSignedMessageHash(bytes32)": "infinite",
						"getMessageHash(string)": "infinite",
						"recover(bytes32,bytes)": "infinite",
						"verify(address,string,bytes)": "infinite"
					},
					"internal": {
						"_split(bytes memory)": "infinite"
					}
				},
				"methodIdentifiers": {
					"getEthSignedMessageHash(bytes32)": "fa540801",
					"getMessageHash(string)": "b446f3b2",
					"recover(bytes32,bytes)": "19045a25",
					"verify(address,string,bytes)": "2dd34f0f"
				}
			},
			"storageLayout": {
				"storage": [],
				"types": null
			},
			"userdoc": {
				"kind": "user",
				"methods": {},
				"version": 1
			}
		}
	}
}