{
	"learn/Visibility.sol": {
		"Child": {
			"abi": [
				{
					"inputs": [],
					"name": "examples",
					"outputs": [],
					"stateMutability": "view",
					"type": "function"
				},
				{
					"inputs": [],
					"name": "examples2",
					"outputs": [],
					"stateMutability": "view",
					"type": "function"
				},
				{
					"inputs": [],
					"name": "externalFun",
					"outputs": [
						{
							"internalType": "uint256",
							"name": "",
							"type": "uint256"
						}
					],
					"stateMutability": "pure",
					"type": "function"
				},
				{
					"inputs": [],
					"name": "publicFunc",
					"outputs": [
						{
							"internalType": "uint256",
							"name": "",
							"type": "uint256"
						}
					],
					"stateMutability": "pure",
					"type": "function"
				},
				{
					"inputs": [],
					"name": "z",
					"outputs": [
						{
							"internalType": "uint256",
							"name": "",
							"type": "uint256"
						}
					],
					"stateMutability": "view",
					"type": "function"
				}
			],
			"devdoc": {
				"kind": "dev",
				"methods": {},
				"version": 1
			},
			"evm": {
				"assembly": "    /* \"learn/Visibility.sol\":818:958  contract Child is Base {... */\n  mstore(0x40, 0x80)\n    /* \"learn/Visibility.sol\":270:271  0 */\n  0x00\n    /* \"learn/Visibility.sol\":253:271  uint private x = 0 */\n  0x00\n  sstore\n    /* \"learn/Visibility.sol\":296:297  1 */\n  0x01\n    /* \"learn/Visibility.sol\":278:297  uint internal y = 1 */\n  dup1\n  sstore\n    /* \"learn/Visibility.sol\":320:321  2 */\n  0x02\n    /* \"learn/Visibility.sol\":304:321  uint public z = 2 */\n  dup1\n  sstore\n    /* \"learn/Visibility.sol\":818:958  contract Child is Base {... */\n  callvalue\n  dup1\n  iszero\n  tag_1\n  jumpi\n  revert(0x00, 0x00)\ntag_1:\n  pop\n  dataSize(sub_0)\n  dup1\n  dataOffset(sub_0)\n  0x00\n  codecopy\n  0x00\n  return\nstop\n\nsub_0: assembly {\n        /* \"learn/Visibility.sol\":818:958  contract Child is Base {... */\n      mstore(0x40, 0x80)\n      callvalue\n      dup1\n      iszero\n      tag_1\n      jumpi\n      revert(0x00, 0x00)\n    tag_1:\n      pop\n      jumpi(tag_2, lt(calldatasize, 0x04))\n      shr(0xe0, calldataload(0x00))\n      dup1\n      0x335d00c2\n      eq\n      tag_3\n      jumpi\n      dup1\n      0x4b73383f\n      eq\n      tag_4\n      jumpi\n      dup1\n      0x4c816d9f\n      eq\n      tag_5\n      jumpi\n      dup1\n      0xc3be8e2c\n      eq\n      tag_6\n      jumpi\n      dup1\n      0xc5d7802e\n      eq\n      tag_7\n      jumpi\n    tag_2:\n      revert(0x00, 0x00)\n        /* \"learn/Visibility.sol\":677:811  function examples() external view {... */\n    tag_3:\n      tag_8\n      tag_9\n      jump\t// in\n    tag_8:\n      stop\n        /* \"learn/Visibility.sol\":504:581  function publicFunc() public pure returns(uint) {... */\n    tag_4:\n      tag_10\n      tag_11\n      jump\t// in\n    tag_10:\n      mload(0x40)\n      tag_12\n      swap2\n      swap1\n      tag_13\n      jump\t// in\n    tag_12:\n      mload(0x40)\n      dup1\n      swap2\n      sub\n      swap1\n      return\n        /* \"learn/Visibility.sol\":589:669  function externalFun() external pure returns(uint) {... */\n    tag_5:\n      tag_14\n      tag_15\n      jump\t// in\n    tag_14:\n      mload(0x40)\n      tag_16\n      swap2\n      swap1\n      tag_13\n      jump\t// in\n    tag_16:\n      mload(0x40)\n      dup1\n      swap2\n      sub\n      swap1\n      return\n        /* \"learn/Visibility.sol\":848:955  function examples2() external view {... */\n    tag_6:\n      tag_17\n      tag_18\n      jump\t// in\n    tag_17:\n      stop\n        /* \"learn/Visibility.sol\":304:321  uint public z = 2 */\n    tag_7:\n      tag_19\n      tag_20\n      jump\t// in\n    tag_19:\n      mload(0x40)\n      tag_21\n      swap2\n      swap1\n      tag_13\n      jump\t// in\n    tag_21:\n      mload(0x40)\n      dup1\n      swap2\n      sub\n      swap1\n      return\n        /* \"learn/Visibility.sol\":677:811  function examples() external view {... */\n    tag_9:\n        /* \"learn/Visibility.sol\":730:731  z */\n      sload(0x02)\n        /* \"learn/Visibility.sol\":726:727  y */\n      sload(0x01)\n        /* \"learn/Visibility.sol\":722:723  x */\n      sload(0x00)\n        /* \"learn/Visibility.sol\":722:727  x + y */\n      tag_23\n      swap2\n      swap1\n      tag_24\n      jump\t// in\n    tag_23:\n        /* \"learn/Visibility.sol\":722:731  x + y + z */\n      tag_25\n      swap2\n      swap1\n      tag_24\n      jump\t// in\n    tag_25:\n      pop\n        /* \"learn/Visibility.sol\":742:755  privateFunc() */\n      tag_26\n        /* \"learn/Visibility.sol\":742:753  privateFunc */\n      tag_27\n        /* \"learn/Visibility.sol\":742:755  privateFunc() */\n      jump\t// in\n    tag_26:\n      pop\n        /* \"learn/Visibility.sol\":766:780  internalFunc() */\n      tag_28\n        /* \"learn/Visibility.sol\":766:778  internalFunc */\n      tag_29\n        /* \"learn/Visibility.sol\":766:780  internalFunc() */\n      jump\t// in\n    tag_28:\n      pop\n        /* \"learn/Visibility.sol\":791:803  publicFunc() */\n      tag_30\n        /* \"learn/Visibility.sol\":791:801  publicFunc */\n      tag_11\n        /* \"learn/Visibility.sol\":791:803  publicFunc() */\n      jump\t// in\n    tag_30:\n      pop\n        /* \"learn/Visibility.sol\":677:811  function examples() external view {... */\n      jump\t// out\n        /* \"learn/Visibility.sol\":504:581  function publicFunc() public pure returns(uint) {... */\n    tag_11:\n        /* \"learn/Visibility.sol\":546:550  uint */\n      0x00\n        /* \"learn/Visibility.sol\":570:573  200 */\n      0xc8\n        /* \"learn/Visibility.sol\":563:573  return 200 */\n      swap1\n      pop\n        /* \"learn/Visibility.sol\":504:581  function publicFunc() public pure returns(uint) {... */\n      swap1\n      jump\t// out\n        /* \"learn/Visibility.sol\":589:669  function externalFun() external pure returns(uint) {... */\n    tag_15:\n        /* \"learn/Visibility.sol\":634:638  uint */\n      0x00\n        /* \"learn/Visibility.sol\":658:661  300 */\n      0x012c\n        /* \"learn/Visibility.sol\":651:661  return 300 */\n      swap1\n      pop\n        /* \"learn/Visibility.sol\":589:669  function externalFun() external pure returns(uint) {... */\n      swap1\n      jump\t// out\n        /* \"learn/Visibility.sol\":848:955  function examples2() external view {... */\n    tag_18:\n        /* \"learn/Visibility.sol\":898:899  z */\n      sload(0x02)\n        /* \"learn/Visibility.sol\":894:895  y */\n      sload(0x01)\n        /* \"learn/Visibility.sol\":894:899  y + z */\n      tag_34\n      swap2\n      swap1\n      tag_24\n      jump\t// in\n    tag_34:\n      pop\n        /* \"learn/Visibility.sol\":910:924  internalFunc() */\n      tag_35\n        /* \"learn/Visibility.sol\":910:922  internalFunc */\n      tag_29\n        /* \"learn/Visibility.sol\":910:924  internalFunc() */\n      jump\t// in\n    tag_35:\n      pop\n        /* \"learn/Visibility.sol\":935:947  publicFunc() */\n      tag_36\n        /* \"learn/Visibility.sol\":935:945  publicFunc */\n      tag_11\n        /* \"learn/Visibility.sol\":935:947  publicFunc() */\n      jump\t// in\n    tag_36:\n      pop\n        /* \"learn/Visibility.sol\":848:955  function examples2() external view {... */\n      jump\t// out\n        /* \"learn/Visibility.sol\":304:321  uint public z = 2 */\n    tag_20:\n      sload(0x02)\n      dup2\n      jump\t// out\n        /* \"learn/Visibility.sol\":330:407  function privateFunc() private pure returns(uint) {... */\n    tag_27:\n        /* \"learn/Visibility.sol\":374:378  uint */\n      0x00\n        /* \"learn/Visibility.sol\":398:399  0 */\n      0x00\n        /* \"learn/Visibility.sol\":391:399  return 0 */\n      swap1\n      pop\n        /* \"learn/Visibility.sol\":330:407  function privateFunc() private pure returns(uint) {... */\n      swap1\n      jump\t// out\n        /* \"learn/Visibility.sol\":415:496  function internalFunc() internal pure returns(uint) {... */\n    tag_29:\n        /* \"learn/Visibility.sol\":461:465  uint */\n      0x00\n        /* \"learn/Visibility.sol\":485:488  100 */\n      0x64\n        /* \"learn/Visibility.sol\":478:488  return 100 */\n      swap1\n      pop\n        /* \"learn/Visibility.sol\":415:496  function internalFunc() internal pure returns(uint) {... */\n      swap1\n      jump\t// out\n        /* \"#utility.yul\":7:84   */\n    tag_39:\n        /* \"#utility.yul\":44:51   */\n      0x00\n        /* \"#utility.yul\":73:78   */\n      dup2\n        /* \"#utility.yul\":62:78   */\n      swap1\n      pop\n        /* \"#utility.yul\":7:84   */\n      swap2\n      swap1\n      pop\n      jump\t// out\n        /* \"#utility.yul\":90:208   */\n    tag_40:\n        /* \"#utility.yul\":177:201   */\n      tag_45\n        /* \"#utility.yul\":195:200   */\n      dup2\n        /* \"#utility.yul\":177:201   */\n      tag_39\n      jump\t// in\n    tag_45:\n        /* \"#utility.yul\":172:175   */\n      dup3\n        /* \"#utility.yul\":165:202   */\n      mstore\n        /* \"#utility.yul\":90:208   */\n      pop\n      pop\n      jump\t// out\n        /* \"#utility.yul\":214:436   */\n    tag_13:\n        /* \"#utility.yul\":307:311   */\n      0x00\n        /* \"#utility.yul\":345:347   */\n      0x20\n        /* \"#utility.yul\":334:343   */\n      dup3\n        /* \"#utility.yul\":330:348   */\n      add\n        /* \"#utility.yul\":322:348   */\n      swap1\n      pop\n        /* \"#utility.yul\":358:429   */\n      tag_47\n        /* \"#utility.yul\":426:427   */\n      0x00\n        /* \"#utility.yul\":415:424   */\n      dup4\n        /* \"#utility.yul\":411:428   */\n      add\n        /* \"#utility.yul\":402:408   */\n      dup5\n        /* \"#utility.yul\":358:429   */\n      tag_40\n      jump\t// in\n    tag_47:\n        /* \"#utility.yul\":214:436   */\n      swap3\n      swap2\n      pop\n      pop\n      jump\t// out\n        /* \"#utility.yul\":442:622   */\n    tag_41:\n        /* \"#utility.yul\":490:567   */\n      0x4e487b7100000000000000000000000000000000000000000000000000000000\n        /* \"#utility.yul\":487:488   */\n      0x00\n        /* \"#utility.yul\":480:568   */\n      mstore\n        /* \"#utility.yul\":587:591   */\n      0x11\n        /* \"#utility.yul\":584:585   */\n      0x04\n        /* \"#utility.yul\":577:592   */\n      mstore\n        /* \"#utility.yul\":611:615   */\n      0x24\n        /* \"#utility.yul\":608:609   */\n      0x00\n        /* \"#utility.yul\":601:616   */\n      revert\n        /* \"#utility.yul\":628:819   */\n    tag_24:\n        /* \"#utility.yul\":668:671   */\n      0x00\n        /* \"#utility.yul\":687:707   */\n      tag_50\n        /* \"#utility.yul\":705:706   */\n      dup3\n        /* \"#utility.yul\":687:707   */\n      tag_39\n      jump\t// in\n    tag_50:\n        /* \"#utility.yul\":682:707   */\n      swap2\n      pop\n        /* \"#utility.yul\":721:741   */\n      tag_51\n        /* \"#utility.yul\":739:740   */\n      dup4\n        /* \"#utility.yul\":721:741   */\n      tag_39\n      jump\t// in\n    tag_51:\n        /* \"#utility.yul\":716:741   */\n      swap3\n      pop\n        /* \"#utility.yul\":764:765   */\n      dup3\n        /* \"#utility.yul\":761:762   */\n      dup3\n        /* \"#utility.yul\":757:766   */\n      add\n        /* \"#utility.yul\":750:766   */\n      swap1\n      pop\n        /* \"#utility.yul\":785:788   */\n      dup1\n        /* \"#utility.yul\":782:783   */\n      dup3\n        /* \"#utility.yul\":779:789   */\n      gt\n        /* \"#utility.yul\":776:812   */\n      iszero\n      tag_52\n      jumpi\n        /* \"#utility.yul\":792:810   */\n      tag_53\n      tag_41\n      jump\t// in\n    tag_53:\n        /* \"#utility.yul\":776:812   */\n    tag_52:\n        /* \"#utility.yul\":628:819   */\n      swap3\n      swap2\n      pop\n      pop\n      jump\t// out\n\n    auxdata: 0xa2646970667358221220f43fae64dbb0db75605f02ab562e637138f04e63a0ac873fe31f0ff311aa120b64736f6c634300081e0033\n}\n",
				"bytecode": {
					"linkReferences": {},
					"object": "60806040525f5f5560018055600280553480156019575f5ffd5b50610213806100275f395ff3fe608060405234801561000f575f5ffd5b5060043610610055575f3560e01c8063335d00c2146100595780634b73383f146100635780634c816d9f14610081578063c3be8e2c1461009f578063c5d7802e146100a9575b5f5ffd5b6100616100c7565b005b61006b610101565b6040516100789190610164565b60405180910390f35b610089610109565b6040516100969190610164565b60405180910390f35b6100a7610112565b005b6100b1610137565b6040516100be9190610164565b60405180910390f35b6002546001545f546100d991906101aa565b6100e391906101aa565b506100ec61013d565b506100f5610144565b506100fe610101565b50565b5f60c8905090565b5f61012c905090565b60025460015461012291906101aa565b5061012b610144565b50610134610101565b50565b60025481565b5f5f905090565b5f6064905090565b5f819050919050565b61015e8161014c565b82525050565b5f6020820190506101775f830184610155565b92915050565b7f4e487b71000000000000000000000000000000000000000000000000000000005f52601160045260245ffd5b5f6101b48261014c565b91506101bf8361014c565b92508282019050808211156101d7576101d661017d565b5b9291505056fea2646970667358221220f43fae64dbb0db75605f02ab562e637138f04e63a0ac873fe31f0ff311aa120b64736f6c634300081e0033",
					"opcodes": "PUSH1 0x80 PUSH1 0x40 MSTORE PUSH0 PUSH0 SSTORE PUSH1 0x1 DUP1 SSTORE PUSH1 0x2 DUP1 SSTORE CALLVALUE DUP1 ISZERO PUSH1 0x19 JUMPI PUSH0 PUSH0 REVERT JUMPDEST POP PUSH2 0x213 DUP1 PUSH2 0x27 PUSH0 CODECOPY PUSH0 RETURN INVALID PUSH1 0x80 PUSH1 0x40 MSTORE CALLVALUE DUP1 ISZERO PUSH2 0xF JUMPI PUSH0 PUSH0 REVERT JUMPDEST POP PUSH1 0x4 CALLDATASIZE LT PUSH2 0x55 JUMPI PUSH0 CALLDATALOAD PUSH1 0xE0 SHR DUP1 PUSH4 0x335D00C2 EQ PUSH2 0x59 JUMPI DUP1 PUSH4 0x4B73383F EQ PUSH2 0x63 JUMPI DUP1 PUSH4 0x4C816D9F EQ PUSH2 0x81 JUMPI DUP1 PUSH4 0xC3BE8E2C EQ PUSH2 0x9F JUMPI DUP1 PUSH4 0xC5D7802E EQ PUSH2 0xA9 JUMPI JUMPDEST PUSH0 PUSH0 REVERT JUMPDEST PUSH2 0x61 PUSH2 0xC7 JUMP JUMPDEST STOP JUMPDEST PUSH2 0x6B PUSH2 0x101 JUMP JUMPDEST PUSH1 0x40 MLOAD PUSH2 0x78 SWAP2 SWAP1 PUSH2 0x164 JUMP JUMPDEST PUSH1 0x40 MLOAD DUP1 SWAP2 SUB SWAP1 RETURN JUMPDEST PUSH2 0x89 PUSH2 0x109 JUMP JUMPDEST PUSH1 0x40 MLOAD PUSH2 0x96 SWAP2 SWAP1 PUSH2 0x164 JUMP JUMPDEST PUSH1 0x40 MLOAD DUP1 SWAP2 SUB SWAP1 RETURN JUMPDEST PUSH2 0xA7 PUSH2 0x112 JUMP JUMPDEST STOP JUMPDEST PUSH2 0xB1 PUSH2 0x137 JUMP JUMPDEST PUSH1 0x40 MLOAD PUSH2 0xBE SWAP2 SWAP1 PUSH2 0x164 JUMP JUMPDEST PUSH1 0x40 MLOAD DUP1 SWAP2 SUB SWAP1 RETURN JUMPDEST PUSH1 0x2 SLOAD PUSH1 0x1 SLOAD PUSH0 SLOAD PUSH2 0xD9 SWAP2 SWAP1 PUSH2 0x1AA JUMP JUMPDEST PUSH2 0xE3 SWAP2 SWAP1 PUSH2 0x1AA JUMP JUMPDEST POP PUSH2 0xEC PUSH2 0x13D JUMP JUMPDEST POP PUSH2 0xF5 PUSH2 0x144 JUMP JUMPDEST POP PUSH2 0xFE PUSH2 0x101 JUMP JUMPDEST POP JUMP JUMPDEST PUSH0 PUSH1 0xC8 SWAP1 POP SWAP1 JUMP JUMPDEST PUSH0 PUSH2 0x12C SWAP1 POP SWAP1 JUMP JUMPDEST PUSH1 0x2 SLOAD PUSH1 0x1 SLOAD PUSH2 0x122 SWAP2 SWAP1 PUSH2 0x1AA JUMP JUMPDEST POP PUSH2 0x12B PUSH2 0x144 JUMP JUMPDEST POP PUSH2 0x134 PUSH2 0x101 JUMP JUMPDEST POP JUMP JUMPDEST PUSH1 0x2 SLOAD DUP2 JUMP JUMPDEST PUSH0 PUSH0 SWAP1 POP SWAP1 JUMP JUMPDEST PUSH0 PUSH1 0x64 SWAP1 POP SWAP1 JUMP JUMPDEST PUSH0 DUP2 SWAP1 POP SWAP2 SWAP1 POP JUMP JUMPDEST PUSH2 0x15E DUP2 PUSH2 0x14C JUMP JUMPDEST DUP3 MSTORE POP POP JUMP JUMPDEST PUSH0 PUSH1 0x20 DUP3 ADD SWAP1 POP PUSH2 0x177 PUSH0 DUP4 ADD DUP5 PUSH2 0x155 JUMP JUMPDEST SWAP3 SWAP2 POP POP JUMP JUMPDEST PUSH32 0x4E487B7100000000000000000000000000000000000000000000000000000000 PUSH0 MSTORE PUSH1 0x11 PUSH1 0x4 MSTORE PUSH1 0x24 PUSH0 REVERT JUMPDEST PUSH0 PUSH2 0x1B4 DUP3 PUSH2 0x14C JUMP JUMPDEST SWAP2 POP PUSH2 0x1BF DUP4 PUSH2 0x14C JUMP JUMPDEST SWAP3 POP DUP3 DUP3 ADD SWAP1 POP DUP1 DUP3 GT ISZERO PUSH2 0x1D7 JUMPI PUSH2 0x1D6 PUSH2 0x17D JUMP JUMPDEST JUMPDEST SWAP3 SWAP2 POP POP JUMP INVALID LOG2 PUSH5 0x6970667358 0x22 SLT KECCAK256 DELEGATECALL EXTCODEHASH 0xAE PUSH5 0xDBB0DB7560 PUSH0 MUL 0xAB JUMP 0x2E PUSH4 0x7138F04E PUSH4 0xA0AC873F CALLF 0x1F0F RETURN GT 0xAA SLT SIGNEXTEND PUSH5 0x736F6C6343 STOP ADDMOD 0x1E STOP CALLER "
				},
				"gasEstimates": {
					"creation": {
						"codeDepositCost": "106200",
						"executionCost": "49367",
						"totalCost": "155567"
					},
					"external": {
						"examples()": "infinite",
						"examples2()": "infinite",
						"externalFun()": "354",
						"publicFunc()": "332",
						"z()": "2491"
					}
				},
				"methodIdentifiers": {
					"examples()": "335d00c2",
					"examples2()": "c3be8e2c",
					"externalFun()": "4c816d9f",
					"publicFunc()": "4b73383f",
					"z()": "c5d7802e"
				}
			},
			"storageLayout": {
				"storage": [
					{
						"astId": 4,
						"contract": "learn/Visibility.sol:Child",
						"label": "x",
						"offset": 0,
						"slot": "0",
						"type": "t_uint256"
					},
					{
						"astId": 7,
						"contract": "learn/Visibility.sol:Child",
						"label": "y",
						"offset": 0,
						"slot": "1",
						"type": "t_uint256"
					},
					{
						"astId": 10,
						"contract": "learn/Visibility.sol:Child",
						"label": "z",
						"offset": 0,
						"slot": "2",
						"type": "t_uint256"
					}
				],
				"types": {
					"t_uint256": {
						"encoding": "inplace",
						"label": "uint256",
						"numberOfBytes": "32"
					}
				}
			},
			"userdoc": {
				"kind": "user",
				"methods": {},
				"version": 1
			}
		}
	}
}