{
	"learn/FunctionOutput.sol": {
		"FunctionOutput": {
			"abi": [
				{
					"inputs": [],
					"name": "assigned",
					"outputs": [
						{
							"internalType": "uint256",
							"name": "x",
							"type": "uint256"
						},
						{
							"internalType": "bool",
							"name": "b",
							"type": "bool"
						}
					],
					"stateMutability": "pure",
					"type": "function"
				},
				{
					"inputs": [],
					"name": "destructingAssigments",
					"outputs": [],
					"stateMutability": "pure",
					"type": "function"
				},
				{
					"inputs": [],
					"name": "named",
					"outputs": [
						{
							"internalType": "uint256",
							"name": "i",
							"type": "uint256"
						},
						{
							"internalType": "bool",
							"name": "b",
							"type": "bool"
						}
					],
					"stateMutability": "pure",
					"type": "function"
				},
				{
					"inputs": [],
					"name": "returnMany",
					"outputs": [
						{
							"internalType": "uint256",
							"name": "",
							"type": "uint256"
						},
						{
							"internalType": "bool",
							"name": "",
							"type": "bool"
						}
					],
					"stateMutability": "pure",
					"type": "function"
				}
			],
			"devdoc": {
				"kind": "dev",
				"methods": {},
				"version": 1
			},
			"evm": {
				"assembly": "    /* \"learn/FunctionOutput.sol\":62:529  contract FunctionOutput {... */\n  mstore(0x40, 0x80)\n  callvalue\n  dup1\n  iszero\n  tag_1\n  jumpi\n  revert(0x00, 0x00)\ntag_1:\n  pop\n  dataSize(sub_0)\n  dup1\n  dataOffset(sub_0)\n  0x00\n  codecopy\n  0x00\n  return\nstop\n\nsub_0: assembly {\n        /* \"learn/FunctionOutput.sol\":62:529  contract FunctionOutput {... */\n      mstore(0x40, 0x80)\n      callvalue\n      dup1\n      iszero\n      tag_1\n      jumpi\n      revert(0x00, 0x00)\n    tag_1:\n      pop\n      jumpi(tag_2, lt(calldatasize, 0x04))\n      shr(0xe0, calldataload(0x00))\n      dup1\n      0x45f907a8\n      eq\n      tag_3\n      jumpi\n      dup1\n      0x53a6aadb\n      eq\n      tag_4\n      jumpi\n      dup1\n      0x86887544\n      eq\n      tag_5\n      jumpi\n      dup1\n      0xadb4d990\n      eq\n      tag_6\n      jumpi\n    tag_2:\n      revert(0x00, 0x00)\n        /* \"learn/FunctionOutput.sol\":190:278  function named() public pure returns(uint i, bool b) {... */\n    tag_3:\n      tag_7\n      tag_8\n      jump\t// in\n    tag_7:\n      mload(0x40)\n      tag_9\n      swap3\n      swap2\n      swap1\n      tag_10\n      jump\t// in\n    tag_9:\n      mload(0x40)\n      dup1\n      swap2\n      sub\n      swap1\n      return\n        /* \"learn/FunctionOutput.sol\":394:526  function destructingAssigments() public pure {... */\n    tag_4:\n      tag_11\n      tag_12\n      jump\t// in\n    tag_11:\n      stop\n        /* \"learn/FunctionOutput.sol\":93:182  function returnMany() public pure returns(uint, bool) {... */\n    tag_5:\n      tag_13\n      tag_14\n      jump\t// in\n    tag_13:\n      mload(0x40)\n      tag_15\n      swap3\n      swap2\n      swap1\n      tag_10\n      jump\t// in\n    tag_15:\n      mload(0x40)\n      dup1\n      swap2\n      sub\n      swap1\n      return\n        /* \"learn/FunctionOutput.sol\":286:386  function assigned() public pure returns (uint x, bool b) {... */\n    tag_6:\n      tag_16\n      tag_17\n      jump\t// in\n    tag_16:\n      mload(0x40)\n      tag_18\n      swap3\n      swap2\n      swap1\n      tag_10\n      jump\t// in\n    tag_18:\n      mload(0x40)\n      dup1\n      swap2\n      sub\n      swap1\n      return\n        /* \"learn/FunctionOutput.sol\":190:278  function named() public pure returns(uint i, bool b) {... */\n    tag_8:\n        /* \"learn/FunctionOutput.sol\":227:233  uint i */\n      0x00\n        /* \"learn/FunctionOutput.sol\":235:241  bool b */\n      0x00\n        /* \"learn/FunctionOutput.sol\":262:263  1 */\n      0x01\n        /* \"learn/FunctionOutput.sol\":265:269  true */\n      dup1\n        /* \"learn/FunctionOutput.sol\":254:270  return (1, true) */\n      swap2\n      pop\n      swap2\n      pop\n        /* \"learn/FunctionOutput.sol\":190:278  function named() public pure returns(uint i, bool b) {... */\n      swap1\n      swap2\n      jump\t// out\n        /* \"learn/FunctionOutput.sol\":394:526  function destructingAssigments() public pure {... */\n    tag_12:\n        /* \"learn/FunctionOutput.sol\":451:457  uint x */\n      0x00\n        /* \"learn/FunctionOutput.sol\":459:465  bool b */\n      0x00\n        /* \"learn/FunctionOutput.sol\":469:481  returnMany() */\n      tag_21\n        /* \"learn/FunctionOutput.sol\":469:479  returnMany */\n      tag_14\n        /* \"learn/FunctionOutput.sol\":469:481  returnMany() */\n      jump\t// in\n    tag_21:\n        /* \"learn/FunctionOutput.sol\":450:481  (uint x, bool b) = returnMany() */\n      swap2\n      pop\n      swap2\n      pop\n        /* \"learn/FunctionOutput.sol\":495:502  bool _b */\n      0x00\n        /* \"learn/FunctionOutput.sol\":506:518  returnMany() */\n      tag_22\n        /* \"learn/FunctionOutput.sol\":506:516  returnMany */\n      tag_14\n        /* \"learn/FunctionOutput.sol\":506:518  returnMany() */\n      jump\t// in\n    tag_22:\n        /* \"learn/FunctionOutput.sol\":492:518  (, bool _b) = returnMany() */\n      swap2\n      pop\n      pop\n        /* \"learn/FunctionOutput.sol\":439:526  {... */\n      pop\n      pop\n      pop\n        /* \"learn/FunctionOutput.sol\":394:526  function destructingAssigments() public pure {... */\n      jump\t// out\n        /* \"learn/FunctionOutput.sol\":93:182  function returnMany() public pure returns(uint, bool) {... */\n    tag_14:\n        /* \"learn/FunctionOutput.sol\":135:139  uint */\n      0x00\n        /* \"learn/FunctionOutput.sol\":141:145  bool */\n      0x00\n        /* \"learn/FunctionOutput.sol\":166:167  1 */\n      0x01\n        /* \"learn/FunctionOutput.sol\":169:173  true */\n      dup1\n        /* \"learn/FunctionOutput.sol\":158:174  return (1, true) */\n      swap2\n      pop\n      swap2\n      pop\n        /* \"learn/FunctionOutput.sol\":93:182  function returnMany() public pure returns(uint, bool) {... */\n      swap1\n      swap2\n      jump\t// out\n        /* \"learn/FunctionOutput.sol\":286:386  function assigned() public pure returns (uint x, bool b) {... */\n    tag_17:\n        /* \"learn/FunctionOutput.sol\":327:333  uint x */\n      0x00\n        /* \"learn/FunctionOutput.sol\":335:341  bool b */\n      0x00\n        /* \"learn/FunctionOutput.sol\":358:359  1 */\n      0x01\n        /* \"learn/FunctionOutput.sol\":354:359  x = 1 */\n      swap2\n      pop\n        /* \"learn/FunctionOutput.sol\":374:378  true */\n      0x01\n        /* \"learn/FunctionOutput.sol\":370:378  b = true */\n      swap1\n      pop\n        /* \"learn/FunctionOutput.sol\":286:386  function assigned() public pure returns (uint x, bool b) {... */\n      swap1\n      swap2\n      jump\t// out\n        /* \"#utility.yul\":7:84   */\n    tag_25:\n        /* \"#utility.yul\":44:51   */\n      0x00\n        /* \"#utility.yul\":73:78   */\n      dup2\n        /* \"#utility.yul\":62:78   */\n      swap1\n      pop\n        /* \"#utility.yul\":7:84   */\n      swap2\n      swap1\n      pop\n      jump\t// out\n        /* \"#utility.yul\":90:208   */\n    tag_26:\n        /* \"#utility.yul\":177:201   */\n      tag_32\n        /* \"#utility.yul\":195:200   */\n      dup2\n        /* \"#utility.yul\":177:201   */\n      tag_25\n      jump\t// in\n    tag_32:\n        /* \"#utility.yul\":172:175   */\n      dup3\n        /* \"#utility.yul\":165:202   */\n      mstore\n        /* \"#utility.yul\":90:208   */\n      pop\n      pop\n      jump\t// out\n        /* \"#utility.yul\":214:304   */\n    tag_27:\n        /* \"#utility.yul\":248:255   */\n      0x00\n        /* \"#utility.yul\":291:296   */\n      dup2\n        /* \"#utility.yul\":284:297   */\n      iszero\n        /* \"#utility.yul\":277:298   */\n      iszero\n        /* \"#utility.yul\":266:298   */\n      swap1\n      pop\n        /* \"#utility.yul\":214:304   */\n      swap2\n      swap1\n      pop\n      jump\t// out\n        /* \"#utility.yul\":310:419   */\n    tag_28:\n        /* \"#utility.yul\":391:412   */\n      tag_35\n        /* \"#utility.yul\":406:411   */\n      dup2\n        /* \"#utility.yul\":391:412   */\n      tag_27\n      jump\t// in\n    tag_35:\n        /* \"#utility.yul\":386:389   */\n      dup3\n        /* \"#utility.yul\":379:413   */\n      mstore\n        /* \"#utility.yul\":310:419   */\n      pop\n      pop\n      jump\t// out\n        /* \"#utility.yul\":425:745   */\n    tag_10:\n        /* \"#utility.yul\":540:544   */\n      0x00\n        /* \"#utility.yul\":578:580   */\n      0x40\n        /* \"#utility.yul\":567:576   */\n      dup3\n        /* \"#utility.yul\":563:581   */\n      add\n        /* \"#utility.yul\":555:581   */\n      swap1\n      pop\n        /* \"#utility.yul\":591:662   */\n      tag_37\n        /* \"#utility.yul\":659:660   */\n      0x00\n        /* \"#utility.yul\":648:657   */\n      dup4\n        /* \"#utility.yul\":644:661   */\n      add\n        /* \"#utility.yul\":635:641   */\n      dup6\n        /* \"#utility.yul\":591:662   */\n      tag_26\n      jump\t// in\n    tag_37:\n        /* \"#utility.yul\":672:738   */\n      tag_38\n        /* \"#utility.yul\":734:736   */\n      0x20\n        /* \"#utility.yul\":723:732   */\n      dup4\n        /* \"#utility.yul\":719:737   */\n      add\n        /* \"#utility.yul\":710:716   */\n      dup5\n        /* \"#utility.yul\":672:738   */\n      tag_28\n      jump\t// in\n    tag_38:\n        /* \"#utility.yul\":425:745   */\n      swap4\n      swap3\n      pop\n      pop\n      pop\n      jump\t// out\n\n    auxdata: 0xa26469706673582212209173d3417b17765039e9bbe72acddb7d3d7bf06d7437b5b993ff32ac939ae14564736f6c634300081e0033\n}\n",
				"bytecode": {
					"linkReferences": {},
					"object": "6080604052348015600e575f5ffd5b5061018b8061001c5f395ff3fe608060405234801561000f575f5ffd5b506004361061004a575f3560e01c806345f907a81461004e57806353a6aadb1461006d5780638688754414610077578063adb4d99014610096575b5f5ffd5b6100566100b5565b60405161006492919061012e565b60405180910390f35b6100756100c2565b005b61007f6100e1565b60405161008d92919061012e565b60405180910390f35b61009e6100ee565b6040516100ac92919061012e565b60405180910390f35b5f5f600180915091509091565b5f5f6100cc6100e1565b915091505f6100d96100e1565b915050505050565b5f5f600180915091509091565b5f5f60019150600190509091565b5f819050919050565b61010e816100fc565b82525050565b5f8115159050919050565b61012881610114565b82525050565b5f6040820190506101415f830185610105565b61014e602083018461011f565b939250505056fea26469706673582212209173d3417b17765039e9bbe72acddb7d3d7bf06d7437b5b993ff32ac939ae14564736f6c634300081e0033",
					"opcodes": "PUSH1 0x80 PUSH1 0x40 MSTORE CALLVALUE DUP1 ISZERO PUSH1 0xE JUMPI PUSH0 PUSH0 REVERT JUMPDEST POP PUSH2 0x18B DUP1 PUSH2 0x1C PUSH0 CODECOPY PUSH0 RETURN INVALID PUSH1 0x80 PUSH1 0x40 MSTORE CALLVALUE DUP1 ISZERO PUSH2 0xF JUMPI PUSH0 PUSH0 REVERT JUMPDEST POP PUSH1 0x4 CALLDATASIZE LT PUSH2 0x4A JUMPI PUSH0 CALLDATALOAD PUSH1 0xE0 SHR DUP1 PUSH4 0x45F907A8 EQ PUSH2 0x4E JUMPI DUP1 PUSH4 0x53A6AADB EQ PUSH2 0x6D JUMPI DUP1 PUSH4 0x86887544 EQ PUSH2 0x77 JUMPI DUP1 PUSH4 0xADB4D990 EQ PUSH2 0x96 JUMPI JUMPDEST PUSH0 PUSH0 REVERT JUMPDEST PUSH2 0x56 PUSH2 0xB5 JUMP JUMPDEST PUSH1 0x40 MLOAD PUSH2 0x64 SWAP3 SWAP2 SWAP1 PUSH2 0x12E JUMP JUMPDEST PUSH1 0x40 MLOAD DUP1 SWAP2 SUB SWAP1 RETURN JUMPDEST PUSH2 0x75 PUSH2 0xC2 JUMP JUMPDEST STOP JUMPDEST PUSH2 0x7F PUSH2 0xE1 JUMP JUMPDEST PUSH1 0x40 MLOAD PUSH2 0x8D SWAP3 SWAP2 SWAP1 PUSH2 0x12E JUMP JUMPDEST PUSH1 0x40 MLOAD DUP1 SWAP2 SUB SWAP1 RETURN JUMPDEST PUSH2 0x9E PUSH2 0xEE JUMP JUMPDEST PUSH1 0x40 MLOAD PUSH2 0xAC SWAP3 SWAP2 SWAP1 PUSH2 0x12E JUMP JUMPDEST PUSH1 0x40 MLOAD DUP1 SWAP2 SUB SWAP1 RETURN JUMPDEST PUSH0 PUSH0 PUSH1 0x1 DUP1 SWAP2 POP SWAP2 POP SWAP1 SWAP2 JUMP JUMPDEST PUSH0 PUSH0 PUSH2 0xCC PUSH2 0xE1 JUMP JUMPDEST SWAP2 POP SWAP2 POP PUSH0 PUSH2 0xD9 PUSH2 0xE1 JUMP JUMPDEST SWAP2 POP POP POP POP POP JUMP JUMPDEST PUSH0 PUSH0 PUSH1 0x1 DUP1 SWAP2 POP SWAP2 POP SWAP1 SWAP2 JUMP JUMPDEST PUSH0 PUSH0 PUSH1 0x1 SWAP2 POP PUSH1 0x1 SWAP1 POP SWAP1 SWAP2 JUMP JUMPDEST PUSH0 DUP2 SWAP1 POP SWAP2 SWAP1 POP JUMP JUMPDEST PUSH2 0x10E DUP2 PUSH2 0xFC JUMP JUMPDEST DUP3 MSTORE POP POP JUMP JUMPDEST PUSH0 DUP2 ISZERO ISZERO SWAP1 POP SWAP2 SWAP1 POP JUMP JUMPDEST PUSH2 0x128 DUP2 PUSH2 0x114 JUMP JUMPDEST DUP3 MSTORE POP POP JUMP JUMPDEST PUSH0 PUSH1 0x40 DUP3 ADD SWAP1 POP PUSH2 0x141 PUSH0 DUP4 ADD DUP6 PUSH2 0x105 JUMP JUMPDEST PUSH2 0x14E PUSH1 0x20 DUP4 ADD DUP5 PUSH2 0x11F JUMP JUMPDEST SWAP4 SWAP3 POP POP POP JUMP INVALID LOG2 PUSH5 0x6970667358 0x22 SLT KECCAK256 SWAP2 PUSH20 0xD3417B17765039E9BBE72ACDDB7D3D7BF06D7437 0xB5 0xB9 SWAP4 SELFDESTRUCT ORIGIN 0xAC SWAP4 SWAP11 RJUMPI 0x4564 PUSH20 0x6F6C634300081E00330000000000000000000000 "
				},
				"gasEstimates": {
					"creation": {
						"codeDepositCost": "79000",
						"executionCost": "127",
						"totalCost": "79127"
					},
					"external": {
						"assigned()": "494",
						"destructingAssigments()": "infinite",
						"named()": "428",
						"returnMany()": "472"
					}
				},
				"methodIdentifiers": {
					"assigned()": "adb4d990",
					"destructingAssigments()": "53a6aadb",
					"named()": "45f907a8",
					"returnMany()": "86887544"
				}
			},
			"storageLayout": {
				"storage": [],
				"types": null
			},
			"userdoc": {
				"kind": "user",
				"methods": {},
				"version": 1
			}
		}
	}
}