{
	"learn/ForAndWhile.sol": {
		"ForAndWhile": {
			"abi": [
				{
					"inputs": [],
					"name": "gas",
					"outputs": [],
					"stateMutability": "pure",
					"type": "function"
				},
				{
					"inputs": [],
					"name": "loops",
					"outputs": [],
					"stateMutability": "pure",
					"type": "function"
				},
				{
					"inputs": [
						{
							"internalType": "uint256",
							"name": "n",
							"type": "uint256"
						}
					],
					"name": "sum",
					"outputs": [
						{
							"internalType": "uint256",
							"name": "",
							"type": "uint256"
						}
					],
					"stateMutability": "pure",
					"type": "function"
				}
			],
			"devdoc": {
				"kind": "dev",
				"methods": {},
				"version": 1
			},
			"evm": {
				"assembly": "    /* \"learn/ForAndWhile.sol\":62:659  contract ForAndWhile {... */\n  mstore(0x40, 0x80)\n  callvalue\n  dup1\n  iszero\n  tag_1\n  jumpi\n  revert(0x00, 0x00)\ntag_1:\n  pop\n  dataSize(sub_0)\n  dup1\n  dataOffset(sub_0)\n  0x00\n  codecopy\n  0x00\n  return\nstop\n\nsub_0: assembly {\n        /* \"learn/ForAndWhile.sol\":62:659  contract ForAndWhile {... */\n      mstore(0x40, 0x80)\n      callvalue\n      dup1\n      iszero\n      tag_1\n      jumpi\n      revert(0x00, 0x00)\n    tag_1:\n      pop\n      jumpi(tag_2, lt(calldatasize, 0x04))\n      shr(0xe0, calldataload(0x00))\n      dup1\n      0x188b85b4\n      eq\n      tag_3\n      jumpi\n      dup1\n      0x6ca7c216\n      eq\n      tag_4\n      jumpi\n      dup1\n      0x938b9ceb\n      eq\n      tag_5\n      jumpi\n    tag_2:\n      revert(0x00, 0x00)\n        /* \"learn/ForAndWhile.sol\":447:611  function sum(uint n) external pure returns(uint){... */\n    tag_3:\n      tag_6\n      0x04\n      dup1\n      calldatasize\n      sub\n      dup2\n      add\n      swap1\n      tag_7\n      swap2\n      swap1\n      tag_8\n      jump\t// in\n    tag_7:\n      tag_9\n      jump\t// in\n    tag_6:\n      mload(0x40)\n      tag_10\n      swap2\n      swap1\n      tag_11\n      jump\t// in\n    tag_10:\n      mload(0x40)\n      dup1\n      swap2\n      sub\n      swap1\n      return\n        /* \"learn/ForAndWhile.sol\":619:656  function gas() external pure {... */\n    tag_4:\n      tag_12\n      tag_13\n      jump\t// in\n    tag_12:\n      stop\n        /* \"learn/ForAndWhile.sol\":90:393  function loops() external pure {... */\n    tag_5:\n      tag_14\n      tag_15\n      jump\t// in\n    tag_14:\n      stop\n        /* \"learn/ForAndWhile.sol\":447:611  function sum(uint n) external pure returns(uint){... */\n    tag_9:\n        /* \"learn/ForAndWhile.sol\":490:494  uint */\n      0x00\n        /* \"learn/ForAndWhile.sol\":506:512  uint s */\n      0x00\n        /* \"learn/ForAndWhile.sol\":528:534  uint i */\n      0x00\n        /* \"learn/ForAndWhile.sol\":537:538  0 */\n      0x00\n        /* \"learn/ForAndWhile.sol\":528:538  uint i = 0 */\n      swap1\n      pop\n        /* \"learn/ForAndWhile.sol\":523:585  for (uint i = 0; i < n; i++) {... */\n    tag_17:\n        /* \"learn/ForAndWhile.sol\":544:545  n */\n      dup4\n        /* \"learn/ForAndWhile.sol\":540:541  i */\n      dup2\n        /* \"learn/ForAndWhile.sol\":540:545  i < n */\n      lt\n        /* \"learn/ForAndWhile.sol\":523:585  for (uint i = 0; i < n; i++) {... */\n      iszero\n      tag_18\n      jumpi\n        /* \"learn/ForAndWhile.sol\":572:573  1 */\n      0x01\n        /* \"learn/ForAndWhile.sol\":567:573  s += 1 */\n      dup3\n      tag_20\n      swap2\n      swap1\n      tag_21\n      jump\t// in\n    tag_20:\n      swap2\n      pop\n        /* \"learn/ForAndWhile.sol\":547:550  i++ */\n      dup1\n      dup1\n      0x01\n      add\n      swap2\n      pop\n      pop\n        /* \"learn/ForAndWhile.sol\":523:585  for (uint i = 0; i < n; i++) {... */\n      jump(tag_17)\n    tag_18:\n      pop\n        /* \"learn/ForAndWhile.sol\":602:603  s */\n      dup1\n        /* \"learn/ForAndWhile.sol\":595:603  return s */\n      swap2\n      pop\n      pop\n        /* \"learn/ForAndWhile.sol\":447:611  function sum(uint n) external pure returns(uint){... */\n      swap2\n      swap1\n      pop\n      jump\t// out\n        /* \"learn/ForAndWhile.sol\":619:656  function gas() external pure {... */\n    tag_13:\n      jump\t// out\n        /* \"learn/ForAndWhile.sol\":90:393  function loops() external pure {... */\n    tag_15:\n        /* \"learn/ForAndWhile.sol\":137:143  uint i */\n      0x00\n        /* \"learn/ForAndWhile.sol\":146:147  0 */\n      0x00\n        /* \"learn/ForAndWhile.sol\":137:147  uint i = 0 */\n      swap1\n      pop\n        /* \"learn/ForAndWhile.sol\":132:311  for (uint i = 0; i < 10; i++) {... */\n    tag_24:\n        /* \"learn/ForAndWhile.sol\":153:155  10 */\n      0x0a\n        /* \"learn/ForAndWhile.sol\":149:150  i */\n      dup2\n        /* \"learn/ForAndWhile.sol\":149:155  i < 10 */\n      lt\n        /* \"learn/ForAndWhile.sol\":132:311  for (uint i = 0; i < 10; i++) {... */\n      iszero\n      tag_25\n      jumpi\n        /* \"learn/ForAndWhile.sol\":186:187  3 */\n      0x03\n        /* \"learn/ForAndWhile.sol\":181:182  i */\n      dup2\n        /* \"learn/ForAndWhile.sol\":181:187  i == 3 */\n      sub\n        /* \"learn/ForAndWhile.sol\":177:232  if (i == 3) {... */\n      iszero\n        /* \"learn/ForAndWhile.sol\":208:216  continue */\n      tag_26\n        /* \"learn/ForAndWhile.sol\":177:232  if (i == 3) {... */\n      jumpi\n        /* \"learn/ForAndWhile.sol\":257:258  5 */\n      0x05\n        /* \"learn/ForAndWhile.sol\":252:253  i */\n      dup2\n        /* \"learn/ForAndWhile.sol\":252:258  i == 5 */\n      sub\n        /* \"learn/ForAndWhile.sol\":248:300  if (i == 5) {... */\n      iszero\n        /* \"learn/ForAndWhile.sol\":279:284  break */\n      tag_25\n        /* \"learn/ForAndWhile.sol\":248:300  if (i == 5) {... */\n      jumpi\n        /* \"learn/ForAndWhile.sol\":132:311  for (uint i = 0; i < 10; i++) {... */\n    tag_26:\n        /* \"learn/ForAndWhile.sol\":157:160  i++ */\n      dup1\n      dup1\n      0x01\n      add\n      swap2\n      pop\n      pop\n        /* \"learn/ForAndWhile.sol\":132:311  for (uint i = 0; i < 10; i++) {... */\n      jump(tag_24)\n    tag_25:\n      pop\n        /* \"learn/ForAndWhile.sol\":321:327  uint j */\n      0x00\n        /* \"learn/ForAndWhile.sol\":330:331  0 */\n      0x00\n        /* \"learn/ForAndWhile.sol\":321:331  uint j = 0 */\n      swap1\n      pop\n        /* \"learn/ForAndWhile.sol\":342:386  while(j < 10) {... */\n    tag_29:\n        /* \"learn/ForAndWhile.sol\":352:354  10 */\n      0x0a\n        /* \"learn/ForAndWhile.sol\":348:349  j */\n      dup2\n        /* \"learn/ForAndWhile.sol\":348:354  j < 10 */\n      lt\n        /* \"learn/ForAndWhile.sol\":342:386  while(j < 10) {... */\n      iszero\n      tag_30\n      jumpi\n        /* \"learn/ForAndWhile.sol\":371:374  j++ */\n      dup1\n      dup1\n      tag_31\n      swap1\n      tag_32\n      jump\t// in\n    tag_31:\n      swap2\n      pop\n      pop\n        /* \"learn/ForAndWhile.sol\":342:386  while(j < 10) {... */\n      jump(tag_29)\n    tag_30:\n        /* \"learn/ForAndWhile.sol\":121:393  {... */\n      pop\n        /* \"learn/ForAndWhile.sol\":90:393  function loops() external pure {... */\n      jump\t// out\n        /* \"#utility.yul\":88:205   */\n    tag_34:\n        /* \"#utility.yul\":197:198   */\n      0x00\n        /* \"#utility.yul\":194:195   */\n      0x00\n        /* \"#utility.yul\":187:199   */\n      revert\n        /* \"#utility.yul\":334:411   */\n    tag_36:\n        /* \"#utility.yul\":371:378   */\n      0x00\n        /* \"#utility.yul\":400:405   */\n      dup2\n        /* \"#utility.yul\":389:405   */\n      swap1\n      pop\n        /* \"#utility.yul\":334:411   */\n      swap2\n      swap1\n      pop\n      jump\t// out\n        /* \"#utility.yul\":417:539   */\n    tag_37:\n        /* \"#utility.yul\":490:514   */\n      tag_47\n        /* \"#utility.yul\":508:513   */\n      dup2\n        /* \"#utility.yul\":490:514   */\n      tag_36\n      jump\t// in\n    tag_47:\n        /* \"#utility.yul\":483:488   */\n      dup2\n        /* \"#utility.yul\":480:515   */\n      eq\n        /* \"#utility.yul\":470:533   */\n      tag_48\n      jumpi\n        /* \"#utility.yul\":529:530   */\n      0x00\n        /* \"#utility.yul\":526:527   */\n      0x00\n        /* \"#utility.yul\":519:531   */\n      revert\n        /* \"#utility.yul\":470:533   */\n    tag_48:\n        /* \"#utility.yul\":417:539   */\n      pop\n      jump\t// out\n        /* \"#utility.yul\":545:684   */\n    tag_38:\n        /* \"#utility.yul\":591:596   */\n      0x00\n        /* \"#utility.yul\":629:635   */\n      dup2\n        /* \"#utility.yul\":616:636   */\n      calldataload\n        /* \"#utility.yul\":607:636   */\n      swap1\n      pop\n        /* \"#utility.yul\":645:678   */\n      tag_50\n        /* \"#utility.yul\":672:677   */\n      dup2\n        /* \"#utility.yul\":645:678   */\n      tag_37\n      jump\t// in\n    tag_50:\n        /* \"#utility.yul\":545:684   */\n      swap3\n      swap2\n      pop\n      pop\n      jump\t// out\n        /* \"#utility.yul\":690:1019   */\n    tag_8:\n        /* \"#utility.yul\":749:755   */\n      0x00\n        /* \"#utility.yul\":798:800   */\n      0x20\n        /* \"#utility.yul\":786:795   */\n      dup3\n        /* \"#utility.yul\":777:784   */\n      dup5\n        /* \"#utility.yul\":773:796   */\n      sub\n        /* \"#utility.yul\":769:801   */\n      slt\n        /* \"#utility.yul\":766:885   */\n      iszero\n      tag_52\n      jumpi\n        /* \"#utility.yul\":804:883   */\n      tag_53\n      tag_34\n      jump\t// in\n    tag_53:\n        /* \"#utility.yul\":766:885   */\n    tag_52:\n        /* \"#utility.yul\":924:925   */\n      0x00\n        /* \"#utility.yul\":949:1002   */\n      tag_54\n        /* \"#utility.yul\":994:1001   */\n      dup5\n        /* \"#utility.yul\":985:991   */\n      dup3\n        /* \"#utility.yul\":974:983   */\n      dup6\n        /* \"#utility.yul\":970:992   */\n      add\n        /* \"#utility.yul\":949:1002   */\n      tag_38\n      jump\t// in\n    tag_54:\n        /* \"#utility.yul\":939:1002   */\n      swap2\n      pop\n        /* \"#utility.yul\":895:1012   */\n      pop\n        /* \"#utility.yul\":690:1019   */\n      swap3\n      swap2\n      pop\n      pop\n      jump\t// out\n        /* \"#utility.yul\":1025:1143   */\n    tag_39:\n        /* \"#utility.yul\":1112:1136   */\n      tag_56\n        /* \"#utility.yul\":1130:1135   */\n      dup2\n        /* \"#utility.yul\":1112:1136   */\n      tag_36\n      jump\t// in\n    tag_56:\n        /* \"#utility.yul\":1107:1110   */\n      dup3\n        /* \"#utility.yul\":1100:1137   */\n      mstore\n        /* \"#utility.yul\":1025:1143   */\n      pop\n      pop\n      jump\t// out\n        /* \"#utility.yul\":1149:1371   */\n    tag_11:\n        /* \"#utility.yul\":1242:1246   */\n      0x00\n        /* \"#utility.yul\":1280:1282   */\n      0x20\n        /* \"#utility.yul\":1269:1278   */\n      dup3\n        /* \"#utility.yul\":1265:1283   */\n      add\n        /* \"#utility.yul\":1257:1283   */\n      swap1\n      pop\n        /* \"#utility.yul\":1293:1364   */\n      tag_58\n        /* \"#utility.yul\":1361:1362   */\n      0x00\n        /* \"#utility.yul\":1350:1359   */\n      dup4\n        /* \"#utility.yul\":1346:1363   */\n      add\n        /* \"#utility.yul\":1337:1343   */\n      dup5\n        /* \"#utility.yul\":1293:1364   */\n      tag_39\n      jump\t// in\n    tag_58:\n        /* \"#utility.yul\":1149:1371   */\n      swap3\n      swap2\n      pop\n      pop\n      jump\t// out\n        /* \"#utility.yul\":1377:1557   */\n    tag_40:\n        /* \"#utility.yul\":1425:1502   */\n      0x4e487b7100000000000000000000000000000000000000000000000000000000\n        /* \"#utility.yul\":1422:1423   */\n      0x00\n        /* \"#utility.yul\":1415:1503   */\n      mstore\n        /* \"#utility.yul\":1522:1526   */\n      0x11\n        /* \"#utility.yul\":1519:1520   */\n      0x04\n        /* \"#utility.yul\":1512:1527   */\n      mstore\n        /* \"#utility.yul\":1546:1550   */\n      0x24\n        /* \"#utility.yul\":1543:1544   */\n      0x00\n        /* \"#utility.yul\":1536:1551   */\n      revert\n        /* \"#utility.yul\":1563:1754   */\n    tag_21:\n        /* \"#utility.yul\":1603:1606   */\n      0x00\n        /* \"#utility.yul\":1622:1642   */\n      tag_61\n        /* \"#utility.yul\":1640:1641   */\n      dup3\n        /* \"#utility.yul\":1622:1642   */\n      tag_36\n      jump\t// in\n    tag_61:\n        /* \"#utility.yul\":1617:1642   */\n      swap2\n      pop\n        /* \"#utility.yul\":1656:1676   */\n      tag_62\n        /* \"#utility.yul\":1674:1675   */\n      dup4\n        /* \"#utility.yul\":1656:1676   */\n      tag_36\n      jump\t// in\n    tag_62:\n        /* \"#utility.yul\":1651:1676   */\n      swap3\n      pop\n        /* \"#utility.yul\":1699:1700   */\n      dup3\n        /* \"#utility.yul\":1696:1697   */\n      dup3\n        /* \"#utility.yul\":1692:1701   */\n      add\n        /* \"#utility.yul\":1685:1701   */\n      swap1\n      pop\n        /* \"#utility.yul\":1720:1723   */\n      dup1\n        /* \"#utility.yul\":1717:1718   */\n      dup3\n        /* \"#utility.yul\":1714:1724   */\n      gt\n        /* \"#utility.yul\":1711:1747   */\n      iszero\n      tag_63\n      jumpi\n        /* \"#utility.yul\":1727:1745   */\n      tag_64\n      tag_40\n      jump\t// in\n    tag_64:\n        /* \"#utility.yul\":1711:1747   */\n    tag_63:\n        /* \"#utility.yul\":1563:1754   */\n      swap3\n      swap2\n      pop\n      pop\n      jump\t// out\n        /* \"#utility.yul\":1760:1993   */\n    tag_32:\n        /* \"#utility.yul\":1799:1802   */\n      0x00\n        /* \"#utility.yul\":1822:1846   */\n      tag_66\n        /* \"#utility.yul\":1840:1845   */\n      dup3\n        /* \"#utility.yul\":1822:1846   */\n      tag_36\n      jump\t// in\n    tag_66:\n        /* \"#utility.yul\":1813:1846   */\n      swap2\n      pop\n        /* \"#utility.yul\":1868:1934   */\n      0xffffffffffffffffffffffffffffffffffffffffffffffffffffffffffffffff\n        /* \"#utility.yul\":1861:1866   */\n      dup3\n        /* \"#utility.yul\":1858:1935   */\n      sub\n        /* \"#utility.yul\":1855:1958   */\n      tag_67\n      jumpi\n        /* \"#utility.yul\":1938:1956   */\n      tag_68\n      tag_40\n      jump\t// in\n    tag_68:\n        /* \"#utility.yul\":1855:1958   */\n    tag_67:\n        /* \"#utility.yul\":1985:1986   */\n      0x01\n        /* \"#utility.yul\":1978:1983   */\n      dup3\n        /* \"#utility.yul\":1974:1987   */\n      add\n        /* \"#utility.yul\":1967:1987   */\n      swap1\n      pop\n        /* \"#utility.yul\":1760:1993   */\n      swap2\n      swap1\n      pop\n      jump\t// out\n\n    auxdata: 0xa264697066735822122010f986c40f6ecec09d17f4a5e745a2e7a747595c3a862ecd491461695c8461d264736f6c634300081e0033\n}\n",
				"bytecode": {
					"linkReferences": {},
					"object": "6080604052348015600e575f5ffd5b506102788061001c5f395ff3fe608060405234801561000f575f5ffd5b506004361061003f575f3560e01c8063188b85b4146100435780636ca7c21614610073578063938b9ceb1461007d575b5f5ffd5b61005d60048036038101906100589190610148565b610087565b60405161006a9190610182565b60405180910390f35b61007b6100bc565b005b6100856100be565b005b5f5f5f5f90505b838110156100b2576001826100a391906101c8565b9150808060010191505061008e565b5080915050919050565b565b5f5f90505b600a8110156100ec5760038103156100df5760058103156100ec575b80806001019150506100c3565b505f5f90505b600a81101561010e578080610106906101fb565b9150506100f2565b50565b5f5ffd5b5f819050919050565b61012781610115565b8114610131575f5ffd5b50565b5f813590506101428161011e565b92915050565b5f6020828403121561015d5761015c610111565b5b5f61016a84828501610134565b91505092915050565b61017c81610115565b82525050565b5f6020820190506101955f830184610173565b92915050565b7f4e487b71000000000000000000000000000000000000000000000000000000005f52601160045260245ffd5b5f6101d282610115565b91506101dd83610115565b92508282019050808211156101f5576101f461019b565b5b92915050565b5f61020582610115565b91507fffffffffffffffffffffffffffffffffffffffffffffffffffffffffffffffff82036102375761023661019b565b5b60018201905091905056fea264697066735822122010f986c40f6ecec09d17f4a5e745a2e7a747595c3a862ecd491461695c8461d264736f6c634300081e0033",
					"opcodes": "PUSH1 0x80 PUSH1 0x40 MSTORE CALLVALUE DUP1 ISZERO PUSH1 0xE JUMPI PUSH0 PUSH0 REVERT JUMPDEST POP PUSH2 0x278 DUP1 PUSH2 0x1C PUSH0 CODECOPY PUSH0 RETURN INVALID PUSH1 0x80 PUSH1 0x40 MSTORE CALLVALUE DUP1 ISZERO PUSH2 0xF JUMPI PUSH0 PUSH0 REVERT JUMPDEST POP PUSH1 0x4 CALLDATASIZE LT PUSH2 0x3F JUMPI PUSH0 CALLDATALOAD PUSH1 0xE0 SHR DUP1 PUSH4 0x188B85B4 EQ PUSH2 0x43 JUMPI DUP1 PUSH4 0x6CA7C216 EQ PUSH2 0x73 JUMPI DUP1 PUSH4 0x938B9CEB EQ PUSH2 0x7D JUMPI JUMPDEST PUSH0 PUSH0 REVERT JUMPDEST PUSH2 0x5D PUSH1 0x4 DUP1 CALLDATASIZE SUB DUP2 ADD SWAP1 PUSH2 0x58 SWAP2 SWAP1 PUSH2 0x148 JUMP JUMPDEST PUSH2 0x87 JUMP JUMPDEST PUSH1 0x40 MLOAD PUSH2 0x6A SWAP2 SWAP1 PUSH2 0x182 JUMP JUMPDEST PUSH1 0x40 MLOAD DUP1 SWAP2 SUB SWAP1 RETURN JUMPDEST PUSH2 0x7B PUSH2 0xBC JUMP JUMPDEST STOP JUMPDEST PUSH2 0x85 PUSH2 0xBE JUMP JUMPDEST STOP JUMPDEST PUSH0 PUSH0 PUSH0 PUSH0 SWAP1 POP JUMPDEST DUP4 DUP2 LT ISZERO PUSH2 0xB2 JUMPI PUSH1 0x1 DUP3 PUSH2 0xA3 SWAP2 SWAP1 PUSH2 0x1C8 JUMP JUMPDEST SWAP2 POP DUP1 DUP1 PUSH1 0x1 ADD SWAP2 POP POP PUSH2 0x8E JUMP JUMPDEST POP DUP1 SWAP2 POP POP SWAP2 SWAP1 POP JUMP JUMPDEST JUMP JUMPDEST PUSH0 PUSH0 SWAP1 POP JUMPDEST PUSH1 0xA DUP2 LT ISZERO PUSH2 0xEC JUMPI PUSH1 0x3 DUP2 SUB ISZERO PUSH2 0xDF JUMPI PUSH1 0x5 DUP2 SUB ISZERO PUSH2 0xEC JUMPI JUMPDEST DUP1 DUP1 PUSH1 0x1 ADD SWAP2 POP POP PUSH2 0xC3 JUMP JUMPDEST POP PUSH0 PUSH0 SWAP1 POP JUMPDEST PUSH1 0xA DUP2 LT ISZERO PUSH2 0x10E JUMPI DUP1 DUP1 PUSH2 0x106 SWAP1 PUSH2 0x1FB JUMP JUMPDEST SWAP2 POP POP PUSH2 0xF2 JUMP JUMPDEST POP JUMP JUMPDEST PUSH0 PUSH0 REVERT JUMPDEST PUSH0 DUP2 SWAP1 POP SWAP2 SWAP1 POP JUMP JUMPDEST PUSH2 0x127 DUP2 PUSH2 0x115 JUMP JUMPDEST DUP2 EQ PUSH2 0x131 JUMPI PUSH0 PUSH0 REVERT JUMPDEST POP JUMP JUMPDEST PUSH0 DUP2 CALLDATALOAD SWAP1 POP PUSH2 0x142 DUP2 PUSH2 0x11E JUMP JUMPDEST SWAP3 SWAP2 POP POP JUMP JUMPDEST PUSH0 PUSH1 0x20 DUP3 DUP5 SUB SLT ISZERO PUSH2 0x15D JUMPI PUSH2 0x15C PUSH2 0x111 JUMP JUMPDEST JUMPDEST PUSH0 PUSH2 0x16A DUP5 DUP3 DUP6 ADD PUSH2 0x134 JUMP JUMPDEST SWAP2 POP POP SWAP3 SWAP2 POP POP JUMP JUMPDEST PUSH2 0x17C DUP2 PUSH2 0x115 JUMP JUMPDEST DUP3 MSTORE POP POP JUMP JUMPDEST PUSH0 PUSH1 0x20 DUP3 ADD SWAP1 POP PUSH2 0x195 PUSH0 DUP4 ADD DUP5 PUSH2 0x173 JUMP JUMPDEST SWAP3 SWAP2 POP POP JUMP JUMPDEST PUSH32 0x4E487B7100000000000000000000000000000000000000000000000000000000 PUSH0 MSTORE PUSH1 0x11 PUSH1 0x4 MSTORE PUSH1 0x24 PUSH0 REVERT JUMPDEST PUSH0 PUSH2 0x1D2 DUP3 PUSH2 0x115 JUMP JUMPDEST SWAP2 POP PUSH2 0x1DD DUP4 PUSH2 0x115 JUMP JUMPDEST SWAP3 POP DUP3 DUP3 ADD SWAP1 POP DUP1 DUP3 GT ISZERO PUSH2 0x1F5 JUMPI PUSH2 0x1F4 PUSH2 0x19B JUMP JUMPDEST JUMPDEST SWAP3 SWAP2 POP POP JUMP JUMPDEST PUSH0 PUSH2 0x205 DUP3 PUSH2 0x115 JUMP JUMPDEST SWAP2 POP PUSH32 0xFFFFFFFFFFFFFFFFFFFFFFFFFFFFFFFFFFFFFFFFFFFFFFFFFFFFFFFFFFFFFFFF DUP3 SUB PUSH2 0x237 JUMPI PUSH2 0x236 PUSH2 0x19B JUMP JUMPDEST JUMPDEST PUSH1 0x1 DUP3 ADD SWAP1 POP SWAP2 SWAP1 POP JUMP INVALID LOG2 PUSH5 0x6970667358 0x22 SLT KECCAK256 LT EXTDELEGATECALL DUP7 0xC4 0xF PUSH15 0xCEC09D17F4A5E745A2E7A747595C3A DUP7 0x2E 0xCD BLOBHASH EQ PUSH2 0x695C DUP5 PUSH2 0xD264 PUSH20 0x6F6C634300081E00330000000000000000000000 "
				},
				"gasEstimates": {
					"creation": {
						"codeDepositCost": "126400",
						"executionCost": "169",
						"totalCost": "126569"
					},
					"external": {
						"gas()": "143",
						"loops()": "infinite",
						"sum(uint256)": "infinite"
					}
				},
				"methodIdentifiers": {
					"gas()": "6ca7c216",
					"loops()": "938b9ceb",
					"sum(uint256)": "188b85b4"
				}
			},
			"storageLayout": {
				"storage": [],
				"types": null
			},
			"userdoc": {
				"kind": "user",
				"methods": {},
				"version": 1
			}
		}
	}
}