{
	"data": {
		"bytecode": {
			"linkReferences": {},
			"object": "6080604052348015600e575f5ffd5b506101308061001c5f395ff3fe6080604052348015600e575f5ffd5b50600436106030575f3560e01c80637e6230f314603457806382692679146050575b5f5ffd5b603a6058565b60405160479392919060cb565b60405180910390f35b60566078565b005b5f5f5f5f3390505f4290505f439050828282955095509550505050909192565b565b5f73ffffffffffffffffffffffffffffffffffffffff82169050919050565b5f60a182607a565b9050919050565b60af816099565b82525050565b5f819050919050565b60c58160b5565b82525050565b5f60608201905060dc5f83018660a8565b60e7602083018560be565b60f2604083018460be565b94935050505056fea264697066735822122086f086f5bc1f9ee57d2c04144b8719d2348b042f2c86a8633f1fef0a00c33fec64736f6c634300081e0033",
			"opcodes": "PUSH1 0x80 PUSH1 0x40 MSTORE CALLVALUE DUP1 ISZERO PUSH1 0xE JUMPI PUSH0 PUSH0 REVERT JUMPDEST POP PUSH2 0x130 DUP1 PUSH2 0x1C PUSH0 CODECOPY PUSH0 RETURN INVALID PUSH1 0x80 PUSH1 0x40 MSTORE CALLVALUE DUP1 ISZERO PUSH1 0xE JUMPI PUSH0 PUSH0 REVERT JUMPDEST POP PUSH1 0x4 CALLDATASIZE LT PUSH1 0x30 JUMPI PUSH0 CALLDATALOAD PUSH1 0xE0 SHR DUP1 PUSH4 0x7E6230F3 EQ PUSH1 0x34 JUMPI DUP1 PUSH4 0x82692679 EQ PUSH1 0x50 JUMPI JUMPDEST PUSH0 PUSH0 REVERT JUMPDEST PUSH1 0x3A PUSH1 0x58 JUMP JUMPDEST PUSH1 0x40 MLOAD PUSH1 0x47 SWAP4 SWAP3 SWAP2 SWAP1 PUSH1 0xCB JUMP JUMPDEST PUSH1 0x40 MLOAD DUP1 SWAP2 SUB SWAP1 RETURN JUMPDEST PUSH1 0x56 PUSH1 0x78 JUMP JUMPDEST STOP JUMPDEST PUSH0 PUSH0 PUSH0 PUSH0 CALLER SWAP1 POP PUSH0 TIMESTAMP SWAP1 POP PUSH0 NUMBER SWAP1 POP DUP3 DUP3 DUP3 SWAP6 POP SWAP6 POP SWAP6 POP POP POP POP SWAP1 SWAP2 SWAP3 JUMP JUMPDEST JUMP JUMPDEST PUSH0 PUSH20 0xFFFFFFFFFFFFFFFFFFFFFFFFFFFFFFFFFFFFFFFF DUP3 AND SWAP1 POP SWAP2 SWAP1 POP JUMP JUMPDEST PUSH0 PUSH1 0xA1 DUP3 PUSH1 0x7A JUMP JUMPDEST SWAP1 POP SWAP2 SWAP1 POP JUMP JUMPDEST PUSH1 0xAF DUP2 PUSH1 0x99 JUMP JUMPDEST DUP3 MSTORE POP POP JUMP JUMPDEST PUSH0 DUP2 SWAP1 POP SWAP2 SWAP1 POP JUMP JUMPDEST PUSH1 0xC5 DUP2 PUSH1 0xB5 JUMP JUMPDEST DUP3 MSTORE POP POP JUMP JUMPDEST PUSH0 PUSH1 0x60 DUP3 ADD SWAP1 POP PUSH1 0xDC PUSH0 DUP4 ADD DUP7 PUSH1 0xA8 JUMP JUMPDEST PUSH1 0xE7 PUSH1 0x20 DUP4 ADD DUP6 PUSH1 0xBE JUMP JUMPDEST PUSH1 0xF2 PUSH1 0x40 DUP4 ADD DUP5 PUSH1 0xBE JUMP JUMPDEST SWAP5 SWAP4 POP POP POP POP JUMP INVALID LOG2 PUSH5 0x6970667358 0x22 SLT KECCAK256 DUP7 CREATE DUP7 CREATE2 0xBC 0x1F SWAP15 JUMPF 0x7D2C DIV EQ 0x4B DUP8 NOT 0xD2 CALLVALUE DUP12 DIV 0x2F 0x2C DUP7 0xA8 PUSH4 0x3F1FEF0A STOP 0xC3 EXTCODEHASH EOFCREATE 0x64 PUSH20 0x6F6C634300081E00330000000000000000000000 "
		},
		"gasEstimates": {
			"creation": {
				"codeDepositCost": "60800",
				"executionCost": "109",
				"totalCost": "60909"
			},
			"external": {
				"doSomething()": "143",
				"globalVars()": "infinite"
			}
		},
		"methodIdentifiers": {
			"doSomething()": "82692679",
			"globalVars()": "7e6230f3"
		}
	},
	"abi": [
		{
			"inputs": [],
			"name": "doSomething",
			"outputs": [],
			"stateMutability": "nonpayable",
			"type": "function"
		},
		{
			"inputs": [],
			"name": "globalVars",
			"outputs": [
				{
					"internalType": "address",
					"name": "",
					"type": "address"
				},
				{
					"internalType": "uint256",
					"name": "",
					"type": "uint256"
				},
				{
					"internalType": "uint256",
					"name": "",
					"type": "uint256"
				}
			],
			"stateMutability": "view",
			"type": "function"
		}
	]
}